:020000040800F2
:1000000018590020D5010008EB170008B10C0008B2
:10001000E9170008B1050008FD23000800000000F2
:100020000000000000000000000000009101000836
:10003000410600080000000045010008491E0008B4
:10004000EF010008EF010008EF010008EF010008D0
:10005000EF010008EF01000831080008EF01000877
:10006000EF010008EF010008C5080008EF010008D3
:10007000EF010008EF010008EF010008EF010008A0
:10008000EF010008EF010008EF010008EF01000890
:10009000EF010008EF010008EF010008EF01000880
:1000A000EF010008EF010008EF010008EF01000870
:1000B000EF010008EF010008EF010008EF01000860
:1000C000EF010008EF010008EF010008EF01000850
:1000D000EF010008EF010008EF010008EF01000840
:1000E00079080008EF010008EF010008EF0100089F
:1000F000EF010008EF010008EF010008EF01000820
:10010000EF010008EF010008EF010008EF0100080F
:10011000EF010008EF0100089D1E0008051F000800
:10012000EF010008EF010008EF010008EF010008EF
:10013000DFF80CD000F0E0F9004800477134000807
:1001400018590020EFF30980BFF36F8F0F4B1A6827
:1001500020E9F00F106008B54FF0BF0080F3118860
:10016000BFF34F8FBFF36F8F03F000FF4FF000001E
:1001700080F31188BDE8084019680868B0E8F00FFE
:1001800080F30988BFF36F8F704700BF180300200A
:10019000074B19680868B0E8F00F80F30988BFF3CF
:1001A0006F8F4FF0000080F311884EF00D0E7047F6
:1001B0001803002006480068006880F3088862B6CB
:1001C00061B6BFF34F8FBFF36F8F00DF00BF00BF7B
:1001D00008ED00E00648804706480047FEE7FEE7D6
:1001E000FEE7FEE7FEE7FEE7FEE7FEE7FEE7FEE7E7
:1001F0004D1E000831010008D2B201E000F8012BC9
:10020000491EFBD270470022F6E710B513460A4696
:1002100004461946FFF7F0FF204610BD421C10F8B7
:10022000011B0029FBD1801A7047F0B480EA01025B
:10023000D40F4200B2EB410F02D2024608461146EB
:100240004A0042D0C30DDDB2C1F3C752AD1A202D12
:1002500035DAC1F3160141F4000204B15242C5F18E
:10026000200602FA06F12A411044B3EBD05F23D0F6
:10027000C4B1012DA0EBC35009DCF0BC4FF000422B
:1002800002EAC352DBB200F5000000F006B94000FC
:1002900000F1807000EBC350A0F1807040EAD17093
:1002A000490009E0490841EAC071A0EBC35000F5DC
:1002B0000000400800EBC350F0BC00F0E5B861421C
:1002C000012202EB4101001BF6E7F0BC704781F010
:1002D0000041AAE780F00040A7E780EA010210B5DC
:1002E00002F00043400022D04A001FD0010E01EB73
:1002F0001261C0F35600C2F3560240F4000042F40B
:100300000002A0FB022000047F39140400D0401C2E
:1003100050EA124001D44000491EC2B20C0604EB60
:10032000D010401C4008802A02D003E0002010BDFD
:1003300020F00100002900DA0020184310BD30B47D
:1003400080EA010202F0004530F0004221F0004056
:1003500013D090B1C30DD40DC2F31601C0F3160033
:10036000E41A41F4000140F400027D34914201D3CB
:10037000641C00E04900002C02DA30BC0020704709
:100380004FF400000023914201D3891A034340082F
:100390004FEA4101F7D151B1914202D14FF00041F2
:1003A00005E002D24FF0010101E06FF0010103EB23
:1003B000C450284430BC00F067B8C10F80EAE07038
:1003C0000844CA079623002100F067B800F00042F5
:1003D00020F00040C10DC0F3160040F400007F295A
:1003E00001DA00207047962903DCC1F19601C8406C
:1003F00001E096398840002AF4D04042704720F04E
:100400000040C10DC0F3160040F400007F2901DA5E
:1004100000207047962903DCC1F19601C84070475F
:100420009639884070472DE9F05F054600209246D6
:100430009B4688460646814640241BE028464146A6
:100440004746224600F079F853465A46C01A914171
:1004500010D311461846224600F060F82D1A67EBBB
:1004600001084F4622460120002100F057F817EB03
:1004700000094E41201EA4F10104DFDC484631464C
:100480002A464346BDE8F09F0029A8BF7047401C9C
:10049000490008BF20F00100704710B4B0FA80FC9A
:1004A00000FA0CF050EA010404BF10BC704749B1D7
:1004B000CCF1200421FA04F411FA0CF118BF012147
:1004C00021430843A3EB0C01CB1D4FEA00614FEA27
:1004D000102042BF002010BC704700EBC3501044F6
:1004E0000029A4BF10BC7047401C490008BF20F081
:1004F000010010BC70470000064C074D06E0E068A4
:1005000040F0010394E8070098471034AC42F6D35A
:10051000FFF712FED4450008F4450008202A04DB4A
:10052000203A00FA02F1002070479140C2F1200306
:1005300020FA03F3194390407047202A04DB203A45
:1005400021FA02F00021704721FA02F3D040C2F1F3
:100550002002914008431946704770B58C1810F876
:10056000015B15F0070301D110F8013B2A1106D1F8
:1005700010F8012B03E010F8016B01F8016B5B1E12
:10058000F9D12B0705D40023521E0DD401F8013BED
:10059000FAE710F8013BCB1A921C03E013F8015B59
:1005A00001F8015B521EF9D5A142D8D3002070BDDD
:1005B000FEE70000F8B5064600200F468DF8000063
:1005C00001F07AFA012294022146684601F0EEF920
:1005D0009DF80000A52801D0012100E00021012F95
:1005E00007D0002211434FF4006521D0A52802D086
:1005F00008E00122F6E7012F04D1C02229460F4866
:1006000001F0D4F9304602F0A3F90028FAD0002016
:1006100001F000FBA5208DF800000122214668466C
:1006200001F0EEF9C0222946044801F0E9F9F8BDCD
:10063000C0222946014801F0B9F9F8BD2400002084
:10064000704700002DE9FC41DFF848814FF4A077A6
:100650000122414601A801F0A9F9D320002200900F
:100660003B4611460E2002F093FDD4207C1E02462C
:10067000009023460021082002F08AFDD520024682
:10068000009023460021072002F082FDEF20009019
:100690002346D6220021082002F07AFDD8263B23EB
:1006A000324603210720009602F072FDEC2502235A
:1006B000D82219460720009502F06AFD3B23EC2260
:1006C00003210F20009502F063FDEB203B230090F7
:1006D000D92219460F2002F05BFDED243B23224670
:1006E00002210020009402F053FD3C23D822194639
:1006F0000020009402F04CFD00963E1F3346D822A5
:100700002F210F2002F044FD009540F211152B46D9
:10071000D92219460F2002F03BFD3346ED2229462F
:100720000720009402F034FD711C0B46D8220720EC
:10073000009402F02DFD9DF80400322825D03221CE
:100740008DF8041014A002F0B9FA1248FF3801F035
:1007500061FA0122414601A801F052F900244FF448
:100760000015EE1205EB042001F054FA214617A003
:1007700002F0A4FA641CB442F4D30021F0233A46F8
:10078000084602F0E1FDBDE8FC8112A002F096FAF5
:10079000F9E70000FFFF1F00C3BBD3D0B3F5CABC0D
:1007A000BBAFD7C0C3E6B5C4CDBCB2E32C20BCB44C
:1007B000BDABBDF8D0D0B3F5CABCBBAF2C207265C1
:1007C00073756C74203D202523780A00B2C1B3FDF7
:1007D00025640A00D2D1BEADB3F5CABCBBAFD7C049
:1007E000C3E6B5C4CDBCB2E30A00000030B4EF29C3
:1007F00000D9EF21B0F5A07F01D340F23F100A4CA1
:100800002246E3881289834201D18A420AD063805A
:10081000A280E08021810A4601460448006830BC7D
:1008200003F0A8B930BC7047A210002008030020D4
:1008300010B5012000F072F8002818D00C4C0121EE
:10084000204600F0ABF9012803D10321094802F04A
:1008500057FD0121204600F0A1F918B904210548EF
:1008600002F04EFDBDE81040012000F051B810BD6F
:1008700000080140AC11002070B54FF40054204630
:1008800000F04CF8002818D00C4D2146284600F006
:1008900085F9012803D10521094802F031FD2146DF
:1008A000284600F07BF918B90621054802F028FD1A
:1008B0002046BDE8704000F02BB870BD001001402C
:1008C000AC1100201CB5102000F028F8002815D02D
:1008D0000BA002F0F3F901210C4801F069FB0021A3
:1008E00010208DF806108DF8041000908DF805008A
:1008F000684600F023F8102000F00AF81CBD000044
:10090000B4A5C3FED6D0B6CF0A0000000010004048
:10091000014908607047000014040140064A01467E
:1009200000201268044B0A4014331B680B4202D0AB
:10093000002A00D0012070470004014030B51A4A57
:100940008379016853B313688B431360111D0B68DF
:100950000468A3430B60017911440B6804682343C6
:100960000B60114B083319680468A14319601C1D02
:1009700021680568A94321604179102905D01144F7
:100980000A68006802430A6030BD196802681143B2
:100990001960216800680143216030BD007910446E
:1009A00002688A43026030BD0004014010B5D0E9FE
:1009B0000323934202D14FF0FF3010BDD0E9004134
:1009C000645C491C4160914201D1002141605B1C83
:1009D0000361204610BDC160016100218361816017
:1009E000C0E900217047D0E90310081A70470000E1
:1009F0008000A0F1C0400029016802D041F001014F
:100A000001E0024A1140016070470000FEFF0F0044
:100A100010B5D0E901121143D0E903231A43114361
:100A20004269114382691143C2691143026A114349
:100A3000426A1143826A1143C26A1143026B114335
:100A400002689200A2F1C04211608168082907D1B2
:100A500001688900A1F1C0410A6842F040020A60C1
:100A6000416BD1E9002342EA03128B688C891B0297
:100A700043EA04431A430B8A42EA03520B7D896915
:100A800042EA03620A4301688900A1F1C0414A6059
:100A9000C16AB1F5804F08D000686FF070418000E6
:100AA000A0F1C040C0F8041110BD816BD1E9002352
:100AB00042EA03128B680C8A1B0243EA04531A436E
:100AC0000B7D896942EA036200680A438000A0F155
:100AD000C040C0F8042110BD10B58A0721F00304FE
:100AE0000649120F21440F238C6893409C438C606D
:100AF0008B68904003438B6010BD000000000140F4
:100B0000F0B5CC78002204F00F03E40601D58C7810
:100B100023430C784FF00F0C14F0FF0F4FF0010E31
:100B20001BD005680E880EFA02F42640A64210D1AA
:100B300096000CFA06F725EA070703FA06F5CE78C1
:100B40003D43282E02D0482E02D002E0446100E04E
:100B50000461521C082AE5D305600A88FF2A1CD9C3
:100B60004468002202F108060EFA06F50E882E40AF
:100B7000AE420ED196000CFA06F7BC4303FA06F714
:100B8000CE783C43282E00D14561CE78482E00D146
:100B90000561521C082AE5D34460F0BD02460020DE
:100BA00092680A4200D0012070474161704701619C
:100BB0007047000070B5104E05460C46307818B9E5
:100BC00000F07AFF01203070220AA13AC2EB021134
:100BD000E0B201EB421100EB41000102A1F521411D
:100BE000C81701EB50700549202201EBE0012846AF
:100BF00000F0DCFE002070BDEC000020003018008A
:100C00002DE9F05F81461E464FF6FF701746884675
:100C1000002400EA46054FF4001BDDF828A00FE091
:100C2000381900EB800108EB811104FB06F02A461D
:100C30000BEB410109EB400000F0B8FE641CA4B2CC
:100C40005445EDD3BDE8F09F2DE9F047DFF858C0DB
:100C500081460020DCF808708A4602467F1E1EE0AE
:100C60000CEB8201C968CC680D690E68B9EB04040D
:100C7000AAEB050312D4002B10DB4D68A5420DDB57
:100C8000D1F80880984509DB5D433319074CEB5CCC
:100C9000496914F81330994200D01046521C97420B
:100CA000DEDABDE8F0870000282E002004010020D5
:100CB000FEE7000010B501F029FA01F0FBFA00F0A0
:100CC0006FFD0BA001F0FAFF00F054FA01F0B8FC40
:100CD00009A001F0F3FF00210320FFF76BFC0FA038
:100CE00001F0ECFF00F0C0FCBDE81040FFF7AABC2B
:100CF000C4E3BAC30A000000B3F5CABCBBAFB4A5D5
:100D0000C3FEC6C12C20CDACCAB1B3F5CABCBBAFC3
:100D1000535049466C6173680A000000B3F5CABCC1
:100D2000BBAFC6C1C4BB2CBBE6D6C6D7C0C3E6D6D4
:100D3000D00A0000044A00284FF48051104601D028
:100D4000FFF733BFFFF733BF0014014030B51D4636
:100D5000144600F021FA044904FB05F04989BDE876
:100D6000304000F0FDB80000F400002001B500980C
:100D700001E0401E00900028FBD108BD2DE9F8419C
:100D8000204F0E468046F968203A95B28888CA8876
:100D900003465043C41700EB5470C0F3C7040868FF
:100DA000009205FB040532464146174800F0A8FBB7
:100DB000F8683146C3888288404600F0EDF92C205F
:100DC000C10608800021114E80223F89DFF838C01B
:100DD00013E000206B5C22FA00F813EA080F01D040
:100DE000378004E000EBC1033CF813303380401C33
:100DF000C0B20828EED3491CC9B2A142E9D3BDE86C
:100E0000F8810000F4000020620A00200000026067
:100E1000F0B50E46054600240F4F19E0F8687B88B0
:100E200081882144994203D9C188002429448DB284
:100E3000C088B9882844884201D90024254629461B
:100E40002046FFF79BFFF868761C8088204484B218
:100E50003278002AE2D1F0BDF40000202DE9FE4FE7
:100E60000026A2EB000883465F1A701E35460191EA
:100E7000B8F1000F02DD4FF0010102E003D14FF0A5
:100E80000001009102E0C8F100080090002F02DD8F
:100E90004FF0010002E003D14FF00000824602E073
:100EA0008246C7F100074046B84501DD044600E030
:100EB0003C46601C4FF00009029018E0584601992A
:100EC00000F08EFB46443D44A64205DD0099361BEA
:100ED0000BEB01001FFA80FBA54204DD01982D1BDE
:100EE000504480B2019009F101001FFA80F9029983
:100EF0008945E3DDBDE8FE8F00B597B03C2108A829
:100F0000FFF781F91C2101A8FFF77DF901210802F3
:100F100000F0D4FC0120019004200390800607908B
:100F20000020029004900590069008210890CDE9D9
:100F300009011021CDE90B100E9009020F90CDE9A7
:100F4000100112901390149001A81590169008A803
:100F5000FFF75EFD01210020FFF74AFD17B000BD3D
:100F600010B500222C23DC062380034B01E01980FE
:100F7000521C8242FBD310BD000002602DE9F84FE5
:100F80000121602000F0B2FC03248DF802401825F6
:100F90008DF803504FF48046ADF800606946514823
:100FA000FFF7AEFD7700ADF8007069464D48FFF7DA
:100FB000A7FD0120ADF8000069464A48FFF7A0FDF3
:100FC0000220ADF8000069464648FFF799FD8020F1
:100FD000ADF8000069464448FFF792FD4FF4807871
:100FE000ADF8008069464048FFF78AFD4FF400796C
:100FF000ADF8009069463C48FFF782FD4FF4806AE7
:10100000ADF800A069463848FFF77AFDF010ADF85A
:10101000000069463448FFF773FD4FF4805BADF87C
:1010200000B069463048FFF76BFD7010ADF8000066
:1010300069462D48FFF764FDADF8006069462A480F
:10104000FFF75EFDADF8007069462748FFF758FDD1
:10105000ADF8008069462348FFF752FDADF80090D7
:1010600069462048FFF74CFDADF800A069461D48D1
:10107000FFF746FD8DF802408DF803501025ADF8BE
:10108000005069461748FFF73BFD2020ADF80000EF
:1010900069461448FFF734FD8020ADF8000069462A
:1010A0001048FFF72DFDE801ADF8000069460D4836
:1010B000FFF726FD8DF803508DF802400220ADF8B1
:1010C000000069460848FFF71BFD8DF803508DF8B6
:1010D0000240ADF800B069460248FFF711FDBDE8D7
:1010E000F88F0000001401400018014030B50728B7
:1010F0003AD81E4BC4074FF0F00118704FF4A0729D
:1011000013D05A80998036210C072180DA8818493B
:10111000A2F51345413D04D0A2F50545523D07D047
:1011200008E0082242EA401003E059809A80EAE78A
:10113000400108802A2020800020088008805888EC
:10114000401EC0F307220A80C0B208802B202080F6
:101150000020088008809888401EC0F307220A807B
:10116000C0B208802C20208030BD0000F400002098
:101170000000026010B5FFF701FFFFF7BDFE012080
:10118000FFF7D8FD00F012FA00F026F8BDE8104095
:101190000320FFF7ABBF000070B54FF0C0462A2414
:1011A00034800C4C050A2580C5B225801044401EB1
:1011B000020A2280C0B220802B203080080A2080C2
:1011C000C8B22080C818401E010A2180C0B2208009
:1011D00070BD00000000026010B500F06DF9B34969
:1011E000B44AA0F51343C880B1494FF0C044413B15
:1011F0007ED0A0F50543523B7BD1CF20208000203C
:101200000880C120088030200880ED2020806420E4
:101210000880032008801220088081200880E820B0
:101220002080852008801020088078200880CB202E
:101230002080392008802C2008800020088034205D
:10124000088002200880F720208020200880EA20E3
:101250002080002008800880C02020802120088075
:10126000C120208011200880C52020802D200880EA
:101270003320088036202080002008803A202080FB
:1012800055200880B1202080002008801720088089
:10129000B62020800A200880A2200880F620208026
:1012A0000120088030200880F22020800020088063
:1012B0002620208001200880E0202080D020088087
:1012C0000020088002200880072008800B2008806A
:1012D0001A2008803120088054200880402008808F
:1012E000292008801220088008800880172001E04B
:1012F00029E027E00880E1202080D020088000201D
:10130000088002200880072008800520088025200A
:1013100008802D20088044200880452008801C205B
:10132000088018200880162008801C2008801D20B6
:101330000880112020801046FFF718FD292020800A
:101340002C20208010BDCF2020800020088081200C
:10135000088030200880ED20208064200880032051
:1013600008801220088081200880E82020808520C5
:1013700008801020088078200880CB202080392029
:1013800008802C2008800020088034200880062057
:101390000880F720208020200880EA20208000207C
:1013A00008800880B1202080002008801B20088051
:1013B000B62020800A200880A2200880C02020803B
:1013C00035200880C120208011200880C520208081
:1013D000452008800880C7202080A2200880F220B5
:1013E0002080002008802620208001200880E02026
:1013F00020800F20088026200880242008800B20D1
:1014000008800E2008800920088054200880A82029
:101410000880462008800C200880172008800920BA
:1014200008800F2008800720088000200880E12025
:10143000208000200880192008801B2008800420BC
:10144000088010200880072008802A200880472074
:101450000880392008800320088006200880088042
:1014600030200880382008800F2008803620208017
:10147000C82008802A20208000200880088008805A
:10148000EF2008802B202080002008800880012089
:1014900008803F2008803A202080552008801120B5
:1014A00020801046FFF762FC29204AE7F400002064
:1014B00000000260FCBF020010B54FF0C0430420E2
:1014C00018800E490888088808884FF6FF7404EAD7
:1014D000002208881043A0F50542523A0DD0D320CF
:1014E000188008880888088804EA002208881043C1
:1014F000A0F51341413900D0002010BD000002606A
:101500002DE9F047994615460E46DDF820A0044621
:1015100053464A4629463046FFF73EFE4FF0C0414B
:101520002E200880DFF88080B8F8000009FB0AF35D
:1015300000204FF4FC6703EBD37C1CE0B8F80050AC
:10154000B8F80020B8F8001005F4784607EAC50599
:101550002E4346EAD22524F8205007EA511502F01E
:10156000F80245EA0222C1F3C4010A4304EB8001F8
:10157000401C4A8080B2B0EB6C0FDFDB09EA0A0046
:10158000C0070ED0B8F80000B8F8001000F4784298
:1015900007EAC000024342EAD12004EB430121F8EC
:1015A000020CBDE8F08700000000026070B5094C35
:1015B00002212046FFF7F9FA40F6FF252846FFF7FB
:1015C000D5FB02212046FFF7F2FA2846BDE870401D
:1015D000FFF7CCBB0018014001231A46FFF7DCBD22
:1015E00010B5084C628890420AD2A288914207D274
:1015F000FFF7F2FF2189BDE810400120FFF7B0BCE2
:1016000010BD0000F40000204FF0C041088070477A
:1016100001490880704700000000026008B5FFF72C
:1016200049FB0E481021017041700A3001F0FAFEAA
:10163000012000900AA33C2278210A4801F0ABFF68
:1016400002F02CF9074A0023403A1021A2F11C00B5
:10165000FFF7C1F9BDE8084000F00CBEA210002061
:10166000BDB90000081200207FB54FF4C06000F043
:10167000EFF806208DF8080001248DF809400220BB
:101680008DF80A008DF80B4002A800F0AFF8282072
:101690008DF8080002A800F0A9F80121142000F03C
:1016A00025F9ADF80C4004258DF80F5003A9144816
:1016B000FFF726FA6603ADF80C608DF80F5003A90A
:1016C0001048FFF71DFA0121084600F00FF900212C
:1016D0000846FFF701FA8DF8064000208DF8040057
:1016E00010208DF8050000946846FFF727F90D21BA
:1016F0000220FFF7F1F968460096FFF71FF97FBD5A
:101700000008014000100140144A10B5D388118927
:1017100003280CD005281FD1114800688469641C77
:101720000AD00A46BDE81040194602F023BABDE8C7
:101730001040184602F08EB8C3601189016101465D
:101740000122084802F032FA074805220168BDE884
:101750001040044802F02ABA10BD0000A210002078
:101760000C030020282E0020080300200148C06838
:1017700070470000F4000020014A10815181704739
:10178000F400002002490148C8607047E4000020CE
:10179000F40000200149088170470000F400002097
:1017A00038B50121082000F0A1F80120ADF80000B3
:1017B00010218DF803100B4C8DF80200694620466D
:1017C000FFF79EF90221ADF8001069462046FFF7A9
:1017D00097F92021ADF8001069462046FFF790F9EF
:1017E00038BD0000000C0140FEE7704730B50F2304
:1017F000C27801780125F2B1144A126801F1E021A2
:1018000002F4E062C2F5E062120AC2F10404D340BD
:101810004278A24084781C401443220181F80024BD
:10182000007800F01F018D404009800000F1E020A9
:10183000C0F8005130BD01F01F008540480980000C
:1018400000F1E020C0F8805130BD00000CED00E058
:101850000249084302490860704700000000FA0589
:101860000CED00E002490A6842EA80000860704717
:10187000007000400748016841F004010160016800
:1018800041F0020101600448016841F00401016077
:1018900030BF70470070004010ED00E0034A014681
:1018A000002052680A4200D00120704700700040BA
:1018B0000149C1F8A000704700000E42044A002907
:1018C000516901D0014300E081435161704700003C
:1018D00000100240044A0029D16901D0014300E010
:1018E0008143D1617047000000100240044A002982
:1018F000916901D0014300E081439161704700008C
:101900000010024030B5204A5168204B11F00C0104
:1019100003D0042901D0082901D0036012E05168E6
:10192000536801F470114FF0020413F4803F04EB8C
:10193000914102D053689B0301D5154B00E0134B36
:101940005943016051680F2303EA1111114B5C5C8C
:101950000168E14041605468072505EA14241C5DD4
:1019600021FA04F48460546805EAD4241B5DD9404C
:10197000C1605268032303EA9232064B1B1F9A5C34
:10198000B1FBF2F1016130BD0010024000127A009B
:1019900000093D00040000200029018802D041F028
:1019A000400101E021F04001018070472DE9F04144
:1019B000124E0F460446154601213046FFF7F5F852
:1019C000032000F04BF9C7F3074000F047F9C7F3D5
:1019D000072000F043F9F8B200F040F904E0FF20DE
:1019E00000F03CF904F8010B6D1EADB2F7D23046A1
:1019F000BDE8F0410121FFF7DAB800000010014016
:101A00002DE9F04706460D4611F0FF00C0F1000138
:101A1000CFB24FEA122402F0FF094FF4807A13D0BC
:101A2000E8B24042C0B205EB00080CB3D01B80B254
:101A3000040A00F0FF093A462946304600F09CF8B7
:101A40003E44454657462DE06CB15746641EE4B20D
:101A50000CD33A462946304600F08EF805F58075DD
:101A600006F58076F2E7294630460EE04A46FAE768
:101A7000B945F8D9A9EB0700C4B23A462946304621
:101A800000F07AF84146F0192246BDE8F04700F030
:101A900073B83A462946304600F06EF805F5807571
:101AA00006F58076641EE4B2F3D2B9F1000001D0ED
:101AB0000246D8E7BDE8F08770B5012186B008037B
:101AC000FFF714FF0121D420FFF710FF0124ADF828
:101AD000144003208DF816001020244D8DF81700B7
:101AE00005A92846FFF70CF82020ADF814001820AF
:101AF0001F4E8DF8170005A93046FFF701F8402169
:101B0000ADF8141005A93046FEF7FAFF8020ADF8B5
:101B1000140005A93046FEF7F3FF01212846FFF720
:101B200046F80020ADF800004FF48271ADF80210C5
:101B3000ADF804000221ADF80610ADF80840090226
:101B4000ADF80A100821ADF80C10ADF80E00072012
:101B5000084CADF810006946204600F0E4F8012179
:101B60002046FFF719FF06B070BD000000100140CD
:101B700000080140003001402DE9F04114460F46B5
:101B8000054600F0B3F8154E01213046FFF70DF879
:101B9000022000F063F8C7F3074000F05FF8C7F3D6
:101BA000072000F05BF8F8B200F058F8B015844256
:101BB00008D904460AA001F081F803E0287800F073
:101BC0004DF86D1C641EA4B2F8D201213046FEF718
:101BD000EEFFBDE8F04100F073B8000000100140D6
:101BE0003C3C2D464C4153482D4552524F522D3EC0
:101BF0003E205350495F464C4153485F50616765F2
:101C0000577269746520746F6F206C61726765210B
:101C10000A00000070B5044600F068F800F050F8C3
:101C20000D4D01212846FEF7C0FF202000F016F8D8
:101C3000C4F3074000F012F8C4F3072000F00EF8D8
:101C4000E0B200F00BF801212846FEF7B0FFBDE836
:101C5000704000F035B80000001001402DE9F0415F
:101C6000154C4FF4805507462560144E03E020685C
:101C7000411E216010D30221304600F049F80028AF
:101C8000F5D03946304600F04CF8256009E021686F
:101C9000481E206005D2012000F062F8C0B2BDE805
:101CA000F0810121304600F033F80028EFD03046B3
:101CB00000F035F8F2E70000F000002000300140AD
:101CC00010B5094C01212046FEF76FFF0520FFF7F4
:101CD000C5FFFF20FFF7C2FFC007FAD12046BDE8CD
:101CE00010400121FEF763BF0010014010B5074C02
:101CF00001212046FEF759FF0620FFF7AFFF2046DF
:101D0000BDE810400121FEF752BF00000010014065
:101D10000246002012890A4200D0012070478089C3
:101D200070478181704730B502884C8802F4415376
:101D30000A88CD8822438C882C4322430C89224375
:101D40004C8922438C892243CC8922431A43028046
:101D5000828B22F400628283098A018230BD0000F6
:101D600010B5014602A000F0A9FF002010BD000040
:101D70003C3C2D464C4153482D4552524F522D3E2E
:101D80003E2053504920B5C8B4FDB3ACCAB121655B
:101D900072726F72436F6465203D2025640A0000F3
:101DA0000CB50022264800920192016841F480316E
:101DB00001604FF4A063016801F4003101910099C2
:101DC000491C0091019911B900999942F3D1016818
:101DD000890333D5012101911A490A6842F01002A2
:101DE0000A600A6822F003020A600A6842F00202EE
:101DF0000A604168416041684160416841F4806126
:101E00004160416821F47C114160416841F4E8116E
:101E10004160016841F08071016001688901FCD571
:101E2000416821F003014160416841F002014160D5
:101E30004168C1F381010229FAD10CBD01920CBDA8
:101E40000010024000200240704700000F4810B50B
:101E5000016841F00101016041680D4A1140416093
:101E600001680C4A11400160016821F48021016081
:101E7000416821F4FE0141604FF41F018160FFF7CA
:101E80008FFF05494FF00060086010BD0010024050
:101E90000000FFF8FFFFF6FE08ED00E01CB5164C51
:101EA0000121204600F08EF8002824D0102113488C
:101EB000FEF774FED0B10221114801F021FA002191
:101EC000204600F075F801218DF806101020002141
:101ED0008DF8041000908DF805006846FEF72EFD81
:101EE0002046BDE81C40012100F05FB801210448F4
:101EF00001F006FAF4E71CBD001000400018014094
:101F0000AC1100202DE9F047DFF884900025012175
:101F1000484600F057F8002837D01E4E3068401C65
:101F200030607168814205D94846BDE8F04701211B
:101F300000F03BB8184FB4684FF001083168606892
:101F400088420CD8C4F808803868844201D1012541
:101F500003E0217CE06801F0D3F92468EEE7B46087
:101F6000606870600121484600F01FF8002D0CD019
:101F70000A480168386801F0D3FF09494FF08050E2
:101F80000860BFF34F8FBFF36F8FBDE8F08700008D
:101F900000140040A84800202C0300201403002057
:101FA00004ED00E0C94301827047C94301827047D4
:101FB0000029018802D041F0010101E021F0010176
:101FC0000180704702460020138A92890B4202EA80
:101FD000010202D0002A00D001207047002A828925
:101FE00001D00A4300E08A438281704730B50288FD
:101FF0001B4C1C4DA0420DD0A8420BD0B0F1804F1D
:1020000008D0194B984205D0184B984202D0184B73
:10201000984203D122F070034A881A43154B984224
:1020200006D0154B984203D022F44073CA881A4355
:1020300002808A8882850A880285A0420AD0A84246
:1020400008D00E4A904205D00D4A904202D00D4A67
:10205000904201D1097A01860121818230BD0000C0
:10206000002C014000340140000400400008004002
:10207000000C0040001000400014004000400140EF
:1020800000440140004801403EB501211020FFF707
:1020900021FC01212020FFF71DFC40F2CF20ADF8EC
:1020A0000000002040F2E734ADF80440154DADF8D3
:1020B0000600ADF802008DF8080069462846FFF7D3
:1020C00095FFADF804408F210F4CADF80010694624
:1020D0002046FFF78BFF01212846FFF763FF01220F
:1020E00011462846FFF77AFF01212046FFF75AFFE5
:1020F000012211462046FFF771FF01212046FFF71C
:1021000057FF3EBD001000400014004038B5FFF7F7
:10211000BBFF4FF4C0652846FFF79AFB36208DF8C9
:10212000000001248DF8014002208DF802008DF896
:1021300003406846FFF75AFB2846FFF789FB372024
:102140008DF800008DF8014004208DF802008DF814
:1021500003406846FFF74AFB38BD0000144864217D
:10216000006801F0DDFE1348016881F001010160A3
:10217000114C1249206988611048FEF734FC90B177
:102180000E48FEF713FC012807D0022805D0C11E17
:10219000042905D2FFF7B8FAEEE700F0AFFBEBE752
:1021A00000F066F8E8E7206901F042FEE4E700008D
:1021B0002C0300200C0C014014030020AC11002063
:1021C000064D074C07A000F079FD2846401EFDD1C2
:1021D000206880F001002060F4E70000FFFF4F005E
:1021E0000C0C01407461736B320A00001CB501F0E5
:1021F00079FD174C206101F05BFD16496061A1F586
:10220000C450CDE9000100234FF4B06212A114487C
:1022100001F0BEFE21690023502248600D491831AB
:10222000A1F52670CDE900010EA1104801F0B0FE25
:102230006169142248600021206901F0D7FD0A225B
:102240000121606901F0D2FDBDE81C4001F084BEAF
:1022500014030020604800205461736B31000000BB
:102260005D2100085461736B32000000C121000839
:102270007047000000B501F03BFE074B07490822FC
:102280001860C160027401F033FE044A58600921ED
:10229000C260017400BD00002C030020AC110020BE
:1022A0000029818902D041F4005101E021F400515C
:1022B0008181704710B586B001210420FFF716FB1D
:1022C00001218803FFF712FB4FF40070ADF81000F6
:1022D00018208DF813000120154C8DF8120004A968
:1022E0002046FEF70DFC2115ADF8101004218DF8E5
:1022F000131004A92046FEF703FC4FF4E1300090D0
:102300000020ADF80800ADF804000C21094CADF830
:102310000600ADF80A10ADF80C006946204600F042
:1023200013F801212046FFF7BBFF06B010BD0000E7
:1023300000080140003801400246002012880A428D
:1023400000D001207047000030B50446008A85B0F7
:102350000D464CF6FF710840E98801432182A089AF
:102360004EF6F3110840A9882A8911436A8902436D
:102370001143A181A08A4FF6FF410840A98901437A
:10238000A1826846FFF7BEFA1948844201D103983A
:1023900000E00298A189090400EBC00101EB0010E4
:1023A000296801D5490000E08900B0FBF1F0642202
:1023B000B0FBF2F109010B096FF018056B4300EB5C
:1023C0008300A3891D044FF0320306D503EBC00040
:1023D000B0FBF2F000F0070005E003EB0010B0FBEB
:1023E000F2F000F00F000843208105B030BD00007E
:1023F00000380140C1F3080181807047FEE72DE9F4
:10240000F0470C460546B1F90010B4F91000164625
:102410000A1AB4F90A30B4F9121001275B1A5A43A8
:10242000B4F90830C01AB4F90230591A00FB01207F
:10243000FDF7C3FF10F0FF4FB0617ED0B5F900107B
:10244000B5F91000B4F90A300A1AB4F912105B1A7F
:102450005A43B5F90830C01AB4F90230591A00FBD2
:102460000120FDF7AAFF3060B4F90000B4F91010A4
:10247000B5F90830421AB5F910001B1A5A43B5F9DC
:102480000030C01AB4F90830591A00FB0120FDF7DA
:1024900094FF7060B4F91030B5F90890B4F90820D1
:1024A000B5F9101003FB09F002FB110CB4F902009E
:1024B0000CFB00FCB4F9000000FB01F8B5F90010BA
:1024C00003FB1183B4F90A804A4303FB08C300FBF2
:1024D0001920B4F9121000FB0130FDF76EFFB06057
:1024E000B5F90200B5F91210B4F90A30421AB4F97C
:1024F00012001B1A5A43B5F90A30C91AB4F902304E
:10250000181A01FB0020FDF758FFF060B4F9000035
:10251000B4F91010B5F90A30421AB5F912001B1AB5
:102520005A43B5F90230C01AB4F90830591A00FB01
:102530000120FDF742FF306100E027E0B4F91020F0
:10254000B5F90A80B4F90810B5F9123002FB08F0A9
:1025500001FB130CB4F90200B5F902500CFB00FCAE
:10256000B4F900006943434302FB1532B4F90A3061
:1025700000FB181002FB03C2B4F9121000FB01208B
:10258000FDF71BFF70613846BDE8F0870027FAE7CA
:1025900001B5002104E00C20401EC0B2FCD2491C51
:1025A00000988142F7D308BD2DE9FC4706460D4649
:1025B0004FF00109684600F0FDF8C8B3BDF902000C
:1025C000FDF7FBFE02461D48007800EB400805EBD6
:1025D000C80410466168FDF780FE0746BDF900009B
:1025E000FDF7EBFE55F83810FDF777FE3946FDF79D
:1025F0001CFEA168FDF719FEFDF7E8FE3080BDF96D
:102600000200FDF7DAFE2169FDF767FE0546BDF918
:102610000000FDF7D2FEE168FDF75FFE2946FDF7F9
:1026200004FE6169FDF701FEFDF7D0FE708002E057
:10263000FFE74FF000094846BDE8FC87F4000020A2
:102640002DE9FF4701216020FFF750F94FF4C060EA
:10265000FFF7FEF80A208DF80C0001248DF80D40DC
:102660008DF80E408DF80F4003A8FFF7BFF8ADF8C6
:102670000040DFF898908DF8024010258DF8035047
:1026800069464846FEF73CFA0427ADF800706946F3
:102690004846FEF735FA0820ADF800008DF80240F4
:1026A00048208DF8030069464846FEF729FA66037C
:1026B000ADF80060DFF858808DF802408DF80350C7
:1026C00069464046FEF71CFA31464046FEF76DFA71
:1026D000ADF800508DF8037069464846FEF710FAD1
:1026E00001210846FFF702F904210846FEF7F4F934
:1026F0008DF80A4000208DF8080001958DF80950EA
:1027000001A8FEF71BF9BDE8FF8700000018014093
:102710000014014070B5264E054604213046FEF7F0
:1027200044FA01213046FEF740FA0024C4F10700C4
:1027300025FA00F0C0074FF00401304602D0FEF742
:1027400036FA01E0FEF731FA0520FFF721FF0121FB
:102750003046FEF72CFA0520FFF71AFF012130461C
:10276000FEF723FA641CE4B2082CDFD30025042111
:102770003046FEF71AFA01213046FEF718FA002417
:1027800001213046FEF711FA08213046FEF706FA1D
:10279000C4F10B018840284385B201213046FEF781
:1027A00006FA641CE4B20C2CEAD3284670BD000083
:1027B000001801402DE9F0418CB005460026282183
:1027C0006846FDF720FDDFF828816C469020FFF772
:1027D000A1FF07460120FFF7DBFED020FFF79AFF9D
:1027E000ADF82870ADF82C0024F8167004EB460103
:1027F000761C8882F6B210214046FEF7CFF908B960
:102800000A2EE3D310214046FEF7C8F910B139492A
:10281000002008700A2E03D000200CB0BDE8F08123
:10282000BDF90060BDF91400B446674603460121B6
:1028300034F91120BA4201DA174602E0B24200DD53
:102840001646491CC9B20A29F2D3012104EB410200
:10285000B2F914209A4201DA134602E0824200DD06
:102860001046491CC9B20A29F0D3BDF90210BDF9BE
:102870000420BDF90640614422441144BDF90820FA
:102880001144BDF90A201144BDF90C201144BDF9D1
:102890000E201144BDF910201144BDF9122011443D
:1028A000C91B891BC9102980BDF91410BDF9162058
:1028B000BDF91A401144BDF9182022441144BDF954
:1028C0001C201144BDF91E201144BDF920201144E3
:1028D000BDF922201144BDF924201144BDF9262060
:1028E0001144C91A081AC0106880012095E7000039
:1028F00000180140140000207047000070B5114915
:10290000202301220C1D022501280B6006D00A603D
:102910002560BDE870400C4800F018B822600D60DA
:10292000094909480831FFF73FFE074C61882088B4
:10293000FDF75CFF2046FFF7DFFF2088A08060885E
:10294000E08070BD100C01401C00002070470000AA
:102950002DE9F14FB2B0BD48FEF714FF00211F2052
:10296000FEF70AFF3298FEF7C1FBB94DB94EAA46F1
:102970002A88B1469108ADF88410338802EB4202F0
:10298000ADF88C1042F38F02980803EB430141F33A
:102990008F01ADF89420ADF89C20ADF88600ADF81D
:1029A0008E10ADF89610ADF89E0000240DF1A40B2A
:1029B00000214D46B9F800305646BAF800200846C6
:1029C000FEF7C4F90FF29028FEF7D0FE8088318818
:1029D000B1FBF0F74046FDF721FC381A42082023EE
:1029E000A3A101A8CDF8008000F078F9288801A9FA
:1029F0004008FEF70DFAFEF7B9FE80883188671CA3
:102A0000B1FBF0F0401E00EBD070421020239AA1E1
:102A100001A8009700F062F9FEF7A8FEC088298897
:102A2000C0EB510080B201A9FEF7F2F99448FFF71C
:102A3000AFFD21A830F8345000EBC400468805F102
:102A40000A0082B21438334680B21946FEF706FAFD
:102A500006F10A0083B20A3E2A46B1B21046FEF7DA
:102A6000FDF90BEBC4042046FFF7A4FE0028FAD0C2
:102A7000FCB2042C9CD31AAA29A921A8FFF7BFFCF9
:102A80002098DFF8008210F0FF4F79D0BDF9BE002A
:102A9000FDF793FC05461B99FDF71FFC0446BDF9A5
:102AA000BC00FDF78AFC06461A99FDF716FC214684
:102AB000FDF7BBFB1C99FDF7B8FB2099FDF73FFC28
:102AC000FDF79DFC84B228461E99FDF706FC0546DD
:102AD00030461D99FDF701FC2946FDF7A6FB1F991D
:102AE000FDF7A3FB2099FDF72AFCFDF788FCBDF953
:102AF0009C1080B2A14201DA611A00E0091B8AB27F
:102B0000BDF99E10814201DA401A00E0081A80B235
:102B10000F2A54D80F2852D820991A98FDF70FFC85
:102B20003299594D01EB410445F8340020991B9826
:102B3000FDF705FC05EBC404606020991C98FDF7C7
:102B4000FEFBA06020991D98FDF7F9FBE06020993D
:102B50001E98FDF7F4FB2061DDE91F01FDF7EFFB97
:102B6000606100214D46B9F800305646BAF80020A1
:102B70000846FEF7EBF84FF4FC60FEF70BFE00E0B2
:102B80001DE042A4FEF7F2FD80883188B1FBF0F62B
:102B90002046FDF743FB301A4208202334A101A848
:102BA000009400F09BF8288801A94008FEF730F94E
:102BB0004046FFF7EDFC012033B0BDE8F08F002167
:102BC0004C46B9F800305546BAF800200846FEF7E2
:102BD000BDF84FF47840FEF7DDFD31A6FEF7C6FDE7
:102BE00080882988B1FBF0F73046FDF717FB381ACB
:102BF000420820231EA101A8009600F06FF820884B
:102C000001A94008FEF704F929A6FEF7AFFD808868
:102C10002988B1FBF0F53046FDF700FB281A420881
:102C2000202313A101A8009600F058F8FEF79EFD9E
:102C3000C088218800EB510080B201A9FEF7E8F8B6
:102C40004046FFF7A5FC0020B6E70000E4000020A6
:102C5000F6000020F8000020546F7563682043617F
:102C60006C696272617465202E2E2E2E2E2E00004D
:102C7000252A632573000000252A632564000000CF
:102C8000E093040040420F002400002043616C697F
:102C900062726174652053756363656400000000AF
:102CA00043616C696272617465206661696C0000E1
:102CB00074727920616761696E0000000FB4054B82
:102CC00010B503A9044A029800F02CF810BC5DF876
:102CD00014FB0000B1330008340300200FB4084B8C
:102CE00010B504A902AA039800F01CF8044602A932
:102CF000002000F048FA204610BC5DF814FB0000EC
:102D00008731000802E008C8121F08C1002AFAD162
:102D100070477047002001E001C1121F002AFBD15B
:102D2000704700002DE9FF4F8DB00F460546002685
:102D300006E025280BD0DDE90F1290476D1C761CAC
:102D400028780028F5D111B03046BDE8F08F002476
:102D5000A246A1460122EC4900E0044315F8013FD8
:102D6000203B02FA03F00842F7D128782A2810D035
:102D70006FF02F022878A0F13001092914D80AEB4E
:102D80008A0102EB410144F0020400EB010A6D1CD0
:102D9000F0E701CF5FEA000A03D544F40054CAF11A
:102DA000000A44F002046D1C28782E2817D115F86B
:102DB000010F44F004042A280ED06FF02F02287867
:102DC000A0F1300109290AD809EB890102EB410180
:102DD00000EB01096D1CF2E757F8049B6D1C287885
:102DE0006C280FD006DC4C2817D068280DD06A2834
:102DF00014D104E0742810D07A280FD10DE044F4E7
:102E000000140AE044F4801401E044F440146978AA
:102E1000814202D104F580146D1C6D1C2A786E2A43
:102E20001FD00CDC632A31D004DC002A8BD0582A56
:102E300011D1A3E0642A68D0692A0CD165E0732A15
:102E40002ED004DC6F2A73D0702A04D19BE0752A3F
:102E50006FD0782A6ED01046DDE90F129047761CAD
:102E600050E1C4F30250022806D0032809D00428F8
:102E700001CF09D0066045E101CFF117C0E900613B
:102E800040E101CF06803DE106703BE117F8040BFD
:102E90008DF8000000208DF80100EB46012003E0D2
:102EA00057F804BB4FF0FF3061074FF0000102D428
:102EB0000DE008F10101884649450FDA8045F8DB4D
:102EC0001BF808100029F4D108E008F10101884638
:102ED0008142FADB1BF808100029F6D1DDE90F2347
:102EE000AAEB08008146214600F036F9304400EB99
:102EF000080604E0DDE90F121BF8010B9047B8F15A
:102F00000108F7D221464846F7E00A21C4F30253EC
:102F10004FF0000B0891022B04D001CFC117032BF7
:102F200009D00AE0FF1D27F00707F7E8020108E0D3
:102F300032E01FE020E000B2C117042B01D140B203
:102F4000C117031E71F1000307DA4FF0000CD0EB3C
:102F50000C006CEB01012D2302E0230504D52B238B
:102F60008DF82430012303E0E30701D02023F7E7A5
:102F7000984658E00A2110E010210EE010204FF092
:102F8000000B08900CE010214FF0000B44F00404FB
:102F90004FF00809089103E008214FF0000B089159
:102FA000C4F30253022B04D001CF0021032B06D01F
:102FB00006E0FF1D27F00707F7E8020103E080B2F3
:102FC000042B00D1C0B24FF0000823072BD5702A84
:102FD00007D0DDF820C08CF0100C5CEA0B0C05D09B
:102FE0000EE040238DF82430012308E050EA01036D
:102FF00006D030238DF824308DF825200223984602
:10300000DDF820C08CF0080C5CEA0B0C0BD150EA08
:10301000010301D1630706D530238DF824304FF02A
:103020000108A9F10109582A04D038A20B9208AA74
:103030000A920BE03AA2F9E75B46089AFDF7F3F92A
:103040000B9B9B5C0A9A521E0A92137050EA010273
:10305000F2D10A98ADEB000000F1200B600702D519
:1030600024F4803401E04FF00109D94502DDA9EBD9
:103070000B0000E0002000EB0B0141440890AAEB9C
:10308000010AE00306D4DDE90F232146504600F093
:1030900063F806444FF0000908E009A911F8090097
:1030A000DDE90F12904709F10109761CC145F4DBF7
:1030B000E0030CD5DDE90F232146504600F04CF823
:1030C000064404E0DDE90F1230209047761C089991
:1030D000481E08900029F5DC08E00A980A99007853
:1030E000491C0A91DDE90F129047761CBBF10001E3
:1030F000ABF1010BF1DC21465046DDE90F2300F076
:1031000019F806446D1C1BE60928010030313233E2
:103110003435363738396162636465660000000013
:1031200030313233343536373839414243444546FD
:10313000000000002DE9F041044600251E46174618
:10314000880404D405E039462020B0476D1C641E75
:10315000F9D52846BDE8F0812DE9F0410446002567
:103160001E469046C80301D5302700E0202788047A
:1031700004D505E041463846B0476D1C641EF9D5BC
:103180002846BDE8F0810A68531C0B601070704738
:103190002DE9F041064606981C46851A641A641CFF
:1031A00097B26D1C1FFA84FC88B2ABB262463946F6
:1031B000FDF7F2FF044904FB05F031F81610BDE8F5
:1031C000F041FDF7CDBE0000040100202DE9F041E3
:1031D0001F4614468C46069D0646ABB2BAB2A1B253
:1031E0001FFA8CF0FDF7D8FF2C20FEF70DFA002413
:1031F0007D4304E036F81400FEF70AFA641CA54289
:10320000F8D8BDE8F081F0B505AC94E8A0400BE03B
:103210001C4605FB01F604E000EB040C641C06F8F8
:103220000C20BC42F8DD6D1C7545F1DDF0BD0000E1
:103230002DE9F04115A0FFF741FD01210807FEF738
:1032400049FB0120FEF72AFB124C20260125271DF1
:103250004FF002080128266013D03D60C4F80080BA
:103260000DA0FFF72BFD3E602560C4F80080012013
:10327000FEF7F8FA0120FEF71BFBBDE8F041FEF770
:10328000F9BA2560C7F8008009A0EAE76576656E9F
:1032900074310A00100C01400D0A20B7C7B4FDBB01
:1032A000FABBBDD0D1B8B4CEBB200D0A00000000DF
:1032B0000D0A20B4FDBBFABBBDD0D1B8B4CEBB2043
:1032C0000D0A000001A0FFF7F9BC00006576656EED
:1032D00074320A0010B506A0FFF7F0FC06484FF064
:1032E000FF320168BDE81040044800F05FBC0000F8
:1032F0006576656E74330A000C030020282E0020CA
:1033000010B502694FF0FF33C2B1846802681155ED
:103310008168491C8160C268914201D100218160AD
:103320000169491E0161806930B10168022903D039
:103330000022194600F05AFD002010BD416941F0FD
:1033400001014161184610BD2DE9F04F884606463F
:10335000A3EB0800401C1FFA80F9901B401C1FFAC9
:1033600080FA4FF6FF71ADF5217D002401EA4A078E
:103370004FF4001B15E0012008EB04050090AAB2F1
:10338000B1B2534601A8FEF7BBF805EB850006EB8A
:1033900080113A460BEB410101A8FEF731FB641C9A
:1033A000A4B24C45E7D30DF5217DBDE8F08F0000B8
:1033B00070B5074D0446C1B22846FFF71BF88021BF
:1033C0002846FEF7B9FF0028F9D0204670BD00005E
:1033D0000038014010B5002821D0114B0022001FF9
:1033E000196803E0814203D80A4649680029F9D1E7
:1033F00052B11368841A9C4204D1006818441060CA
:10340000104602E0506000E0186039B102680B1A03
:10341000934203D10B681A4402604968416010BDB1
:1034200038030020F0B500220726DFF840C014461C
:10343000102700210CEB02135D5C2A2D02D101EB59
:10344000021544555D5C4F2D02D101EB0215465526
:103450005D5C2E2D02D101EB02154755491C102948
:10346000EADB521C102AE4DBF0BD0000260100203C
:10347000FEF7D4F87821A020FDF7B8F9FEF7B6FEE4
:103480000B48FDF7B0FA88B10948FDF78FFA01281B
:1034900007D0022805D0C11E042905D2FEF734F951
:1034A00004E0FFF72BFA01E0FEF7E2FE30BFE7E7AA
:1034B000AC1100202DE9FF4F83B01F46DDE910015C
:1034C0001518D81E05F1010B5E18CDE9000B8146D9
:1034D0000290DDE903011446931E0F22FFF793FECD
:1034E00006F10108E21ECDF80090CDE90128DDE9E2
:1034F0000301E31E0F22FFF786FEB01CCDE9000B8F
:1035000082460290DDE90301E31E0722FFF77BFEFE
:10351000AA1CCDE90092CDF808A0DDE90301AB1C9F
:103520000722FFF770FEB81ECDE900058146029024
:10353000DDE90301631E0022FFF765FEA01ECDF842
:103540000090CDE90106DDE90301A31E0022FFF78B
:103550005AFECDE90085CDF80880DDE90301A31E00
:103560000822FFF750FECDF80090CDE901B8DDE963
:1035700003016B1C0822FFF746FE7F1E0097CDE972
:1035800001561298631EC2B2DDE90301FFF73BFE4C
:1035900007B0BDE8F08F2DE9FF4F83B00027A1F100
:1035A000010BCDE9007B91460C463B460822029771
:1035B0000398FFF728FE4FF00108A4F1020ACDE9B5
:1035C000008A434607222146CDF808800398FFF77A
:1035D0001AFEA9F101060097CDE901760023082221
:1035E00021460398FFF70FFE751ECDF80080CDE948
:1035F00001850123072221460398FFF704FECDF839
:103600000080CDE901A5A31E0F2221460398FFF7F4
:10361000FAFD0097CDE901B6631E0022214603980A
:10362000FFF7F1FD02206A1EE11E8DE80700034648
:10363000082221460398FFF7E6FDCDE9005A012351
:103640000F22214602950398FFF7DDFDCDE9006BBF
:1036500000231A46214602960398FFF7D4FD109BDB
:10366000069A039807B02146BDE8F04FAFF30080FB
:10367000FEB517460C46054613B107260C2201E09D
:1036800008260F221423211F03208DE80B00034678
:1036900021462846FFF7B7FD04231A46214628464F
:1036A000CDE9006700F05CF8DFF840C0002100229F
:1036B000481D00FB04560CEB0117B85C40280FD0E6
:1036C00024280FD051280FD00723A0183044521CB3
:1036D00000F8153C102AF0DB491C0E29E7DBFEBD83
:1036E0000023F2E70F23F0E70823EEE7260200208D
:1036F000F0B50B30154D20F007010024144A0FE0FF
:1037000003688B420BD38B4205D95E1A4318476876
:10371000C3E9006700E04368136002C004E0021DD3
:1037200010680028ECD12046002802D1286808B192
:103730000020F0BD064A07481060074A121A22F01E
:103740000702C0E9002401202860D7E73C030020DD
:10375000380300201C4900201851002030BFFDE72D
:103760002DE9FF4F89B09B4614468846179D2EE0F1
:103770002888010201EB102081B26846FDF71AFA91
:1037800016980021E9464FF6FF7A4FF4004CC2B27A
:1037900009EB410319F811005E78099F0AEA00203D
:1037A0000BEB0103064303FB087300202CFA00F720
:1037B000374201D02718DA55401CC0B21028F5D383
:1037C000491CC9B21029E3D31034A4B2AD1C287827
:1037D0000028CDD10DB0BDE8F08F000010B5031F5B
:1037E0004FF080741C601B1F21F001011960191F2C
:1037F000024B0B60143940380A6010BD5D37000879
:1038000070B50DF1100C9CE870000A808C804B8024
:10381000CD808E60026A12B9016270BD0246D06826
:103820000028FBD1D16070BD002101EBC10200EB8B
:103830008202D26B22B1491C0529F6DB00207047B9
:1038400001EBC10100EB81000121C163891E81638D
:103850002030704770B50C460546FDF7F5F90E4966
:1038600001EB8000C068C1686E1A0169651A046ABC
:103870000EE02088B0420ADCA088B04207DD6088F4
:10388000A84204DCE088A84201DDA0688047E46823
:10389000002CEED170BD0000282E00202DE9FE4343
:1038A000F0214FF4A07000F0DBF94048FFF7BCFFB7
:1038B0003F4D28603D48FFF7B7FFDFF8F8803E49ED
:1038C00049F69917C8F8000000974B780A784446E3
:1038D0000A3100F049F900200346024601460090F3
:1038E000286800F041F920687826A021C0E903612A
:1038F0002E48FFF799FF314C206010B930A0FFF738
:10390000DDF900973C2378223249206800F02CF939
:10391000206814270722C7600761102168208DE8FE
:1039200007001C23082278212A48FFF7C3FD2AA19B
:103930000E20CDE900011C23082278212548FFF73D
:103940000FFF00221948296800F030F901221748BA
:10395000216800F02BF905221448D8F8001000F077
:1039600025F91F4AF0213C208DE807001949D22390
:10397000002230392868FFF743FF1A485A21009681
:10398000CDE90110134900231A4620392068FFF7BA
:1039900037FF15480096CDE901700E4900236422D7
:1039A00010392068FFF72CFFBDE8FE83282E002089
:1039B0001003002008030020A21000200C030020A8
:1039C000B4B0BFDACDBCB2E3C9EAC7EBCAA7B0DC7A
:1039D0000000000008120020B2E2CAD4000000007B
:1039E00031320008C5320008D53200082DE9FF4FFA
:1039F00085B00D46040000D50024002D00DA002516
:103A0000544E07993068884200DA07907068089928
:103A1000884200DA08900798001B80B2019008984D
:103A2000401B81B2019804914843B0F5817F21DBAE
:103A30000199012000EB111A0499002700EB111BDA
:103A400013E005EB0719002609F1100809E004EB63
:103A50000610434600F110024946FFF7C7FF761CE7
:103A6000B6B25645F3D37F1CBFB25F45E9D309B068
:103A7000BDE8F08F4000FFF73BFE029080B3049852
:103A80000090DDE90130AAB2A1B2FDF7B9F800203B
:103A900047E000EB8B00079EC068C368D0F800E0E9
:103AA000E11A5FEA010A0169A6EB0303089EA5EB90
:103AB0000102A6EB010901D54FF0000A002A00DA45
:103AC00000224168994200DA0B468168494524DAB0
:103AD000894622E001698E185146A6EB050C19E0D3
:103AE00032E047680EEB01085743C66817F80880B4
:103AF000194F0E4437F81870D0F81480B84508D024
:103B0000DDF804800CFB0866A6EB0408029E26F88C
:103B10001870491C9942E4DB521C4A45DADB0BF170
:103B2000010083460B4882685A45B2DA0498009037
:103B3000DDE901302A462146FFF748FB029809B02B
:103B4000BDE8F04FFFF746BC09B004A0BDE8F04F58
:103B5000FFF7B4B8282E002004010020C9EAC7EB03
:103B6000CAA7B0DC0A00000010B5029C446180E8DE
:103B70000E0010BD70B504460E46D4E90301C4E939
:103B800003621546A269002A0FDBA2685318626817
:103B90000244FFF72BFFA068294643196068821989
:103BA0003046BDE87040FFF721BF70BD30B4846877
:103BB0008B69651C954200DA2A464FF0FF34A24219
:103BC00000DA22468A6193421DDD002A06DA0BE004
:103BD00000EB8304A568E560AB615B1E9342F7DCF4
:103BE00000EB8200C1602FE082689A4206DC08E0A8
:103BF00000EB83021469D460A3615B1C82689A4263
:103C0000F6DC521E1FE029DA002B09DA0BE000EB8C
:103C100083052C69EC600CB1A36100E0521E5B1CB3
:103C20009342F4DBDCE7836806E000EB8304E5689D
:103C300025615C1C5B1EAC619342F6DA00EB8202EC
:103C4000D1608268521C82600C6988682318C86839
:103C500049684218214630BCFFF7C8BE30BC7047E7
:103C6000084BC3E900014FF0FF3098600020024686
:103C700000EBC00103EB8101401CCA630A64052804
:103C8000F6DB7047282E0020084AC168D268C1EBD5
:103C9000C10102EB810151F8082F01EB8202906013
:103CA0000A68521C0A600221016070471403002058
:103CB00072B600200949C96801EB0012D2F89420BD
:103CC0002AB1401C0528F7DB62B60020704701EBE3
:103CD0000010012140F8941F62B6704714030020C1
:103CE00030BFFDE73CB51D481B4AC26000200346BB
:103CF00002EB0011401CC1F894300528F8DB0020CD
:103D0000C0EBC00102EB8101401C8B60CB60052839
:103D1000F6DBFFF7CDFF0446022020601420C4E943
:103D200002032046FFF7B0FF00F0CEF8FFF7C0FF18
:103D30000B490546A1F5B870CDE9000100235022DA
:103D400008A10A4800F024F96860012204212846ED
:103D500000F04CF820463CBDFC2E0020140300204F
:103D60009048002053656E7472790000E13C0008B1
:103D70000648C0680168C1EBC10100EB8100C16861
:103D8000083000EB810080687047000014030020B9
:103D900010B5154AC168D268C1EBC10102EB8102BE
:103DA000002152F8083F05E002EB8104A468844238
:103DB00002D0491C8B42F7DC5B1E136054688C42B6
:103DC00001DD641E54609C4201DB0023536001232B
:103DD000036004E002EB8100491CC3688360106843
:103DE0008842F7DC10BD00001403002030B50D0040
:103DF000044672B600D5E568002A00DDA26020689E
:103E0000022808D1E068A84209D02046FFF7C0FF89
:103E10002068022803D02046E560FFF735FF0349FC
:103E20000120C968087162B630BD0000140300208B
:103E300030B504460068022811D1FFF799FF054606
:103E40002046FFF7A5FFAC4209D100F03DF8044938
:103E50004FF080500860BFF34F8FBFF36F8F30BDBE
:103E600004ED00E030B5174CE2681068C0EBC0000C
:103E700002EB800050F80C1F491C40F804194B1C41
:103E80000568A94201DB002141609D4200DC00235E
:103E9000117941B100F018F8E0680168C1EBC10187
:103EA00000EB81000830416800EB810100EB8300EA
:103EB000896880688068206048686168884200D0AE
:103EC000606030BD1403002008490020C968C0EBC1
:103ED000C00201EB82029268002A02DC401C052825
:103EE000F5DB086000200871704700001403002013
:103EF0000A49002000EB800201EB8202526922B1E4
:103F0000401C0528F6DB0020704700EB800001EB29
:103F10008000012242610C3070470000A848002058
:103F20000C4B10B51A680A440221C0E9012172B68F
:103F300099684C68A24204D8986001604068586053
:103F400006E00C4609684B689A42FAD82060016086
:103F500062B610BDA848002003490248486000F03E
:103F600007B800006048002014030020FFF77ABF64
:103F7000064810B5016841F47F010160016841F015
:103F80007F410160FCF716F9002010BD20ED00E034
:103F9000F8B54FF0000CDDE90664FCB1F6B1074658
:103FA0006FF0030000EB820030446D4620F0070004
:103FB0000022666004EB020E8E5C8EF808608E5C58
:103FC00016B1521C102AF5D384F817C01A46394688
:103FD000FFF704FC20601DB12C6001E0CDF800C0AB
:103FE0000098F8BD00000000000000000000000084
:103FF0000000000000000018181818181808000821
:1040000018000000000000342424240000000000F8
:10401000000000000000000016247F2424247E24D9
:1040200024000000000000083E6848681C161212B8
:104030007C10100000000061D29674081016294907
:10404000C6000000000000003C646438724ACE469E
:104050007F00000000000018181818000000000081
:10406000000000000000000408181030303030104C
:1040700010180C04000000201008080C0404040CA4
:1040800008181020000000080A341C6A080000000C
:10409000000000000000000000001818187F181829
:1040A00018000000000000000000000000000018E0
:1040B000180830000000000000000000003C000074
:1040C00000000000000000000000000000000018D8
:1040D000180000000000000206040C080810102060
:1040E00020400000000000003C6642475B734266CF
:1040F0003C00000000000000187848080808080884
:104100007E000000000000003C4606060408102067
:104110007E000000000000007C0606043C0202064F
:104120007C000000000000000C1C14246444FF0408
:1041300004000000000000007E6060607E02020655
:104140007C000000000000001E30604876424262A1
:104150003C000000000000007E0206040C0818105D
:1041600030000000000000003C6242361C66424203
:104170003C000000000000003C664242661A020457
:10418000780000000000000000001818000000186F
:1041900018000000000000000000181800000018BF
:1041A0001808300000000000000004183060100CF7
:1041B0000600000000000000000000007E007E00FD
:1041C00000000000000000000000301804060C1081
:1041D00020000000000000301C0606061810001029
:1041E000100000000000001C224141DDB5A5A5AF74
:1041F00094C0403C00000000181C342426627E431A
:10420000C1000000000000007C4642467C42424261
:104210007C000000000000001E2040404040406044
:104220003E000000000000007C46424343434246FB
:1042300078000000000000007E6060607E606060CA
:104240007E000000000000007E6060607E606060B4
:1042500060000000000000001E604040CE4242624C
:104260003E00000000000000424242427E424242C4
:1042700042000000000000007E18181818181818D6
:104280007E000000000000007C04040404040444D8
:1042900078000000000000004244485070584C4430
:1042A00042000000000000002020202020202020CC
:1042B0003E000000000000006266675F5B5BC1C1FA
:1042C000C100000000000000626272525A4A4E466D
:1042D00046000000000000003C6243C3C3C34362C9
:1042E0003C000000000000007C464242467840400E
:1042F00040000000000000003C6243C3C3C34362AF
:104300003C180F00000000007C6662667C6C6466EE
:1043100062000000000000003E6040601C060202D7
:104320007C000000000000007F18181818181818EA
:104330001800000000000000424242424242426235
:104340003C00000000000000C14342622624341CEF
:104350001800000000000000C1C141495B5B7666A7
:10436000660000000000000043663418181C246634
:10437000C300000000000000C14266341C18181879
:1043800018000000000000007E02040C18102060DD
:104390007E0000000000001C101010101010101003
:1043A0001010101C000000402020101008080C0401
:1043B000060200000000003C0C0C0C0C0C0C0C0C59
:1043C0000C0C0C3C00000000181C246200000000D3
:1043D00000000000000000000000000000000000DD
:1043E000000000FF0000002010000000000000009E
:1043F000000000000000000000003C06023E4246B3
:104400007A0000000000004040405C6242424242AC
:104410007C0000000000000000001E2060406020C2
:104420003E0000000000000202023E62424242667C
:104430003A0000000000000000003C62427E406044
:104440003E0000000000000F1810107E1010101029
:10445000100000000000000000003F664266584067
:104460003E43423C0000004040405C6242424242C7
:10447000420000000000001818007808080808082A
:104480007E000000000000040C007C04040404040E
:1044900004040C78000000606060626C78706864EE
:1044A00062000000000000780808080808080808F2
:1044B0007E000000000000000000764B4B4B4B4B91
:1044C0004B0000000000000000005C6242424242DB
:1044D000420000000000000000003C6242434262D3
:1044E0003C0000000000000000005C6242424242CA
:1044F0007C4040400000000000003E6242424266B4
:104500003A0202020000000000006E726360606008
:10451000600000000000000000003E20203C060279
:104520007C000000000000001010FE1010101010A1
:104530001E000000000000000000424242424266AD
:104540003A000000000000000000434266243418D6
:1045500018000000000000000000C1C15B5A5E6648
:104560006600000000000000000062261C181C26E7
:104570006200000000000000000043426624341C7A
:10458000181830E00000000000007E060C18102013
:104590007E0000000000000E181010103070101087
:1045A0001010180E00000808080808080808080875
:1045B0000808080800000030180808080C0E080851
:1045C000080818300000000000000000714B0600D1
:1045D00000000000F4450008000000204003000037
:1045E0005A0500087C47000840030020D855000009
:1045F000142D000845020406082D01020304048559
:10460000060708095AFF0110C3F6CFD3BBD108969D
:10461000BDD42D8C43A359993DD97A063BA578D1B9
:10462000C065C5B03D6EDBF73AF3624DC1CCEC73AB
:10463000BBA0C186BD39B77E433752363B7EFE7B79
:104640003DF18739C1F3C9AA3DD40CA93BC4667AB0
:10465000C12ECBB73DEC8497B9CEE5A4C1CA17B43F
:10466000BAE3FE833D996E80C18010493ADACA8B65
:10467000BD4BE47A438F39AFBDEA784CB9B35FA73D
:1046800043438EADBDDE214538E294A14326370A6F
:10469000BB85ED87BD2F7E82439738F2BAE82E891D
:1046A0003D07EA4CC108CAADBDA30653BA9CB2A6E9
:1046B00043E50AAFBD5DA365BAF702A743C32A5E0F
:1046C000BB8A8E843DE5C1C6C0E43F130808621072
:1046D00022A0120612F04B4001E222E4322017F829
:1046E000E007E0FF1F100917F8FF07FFFF38C617A4
:1046F000802004208410B80A1080300430849999F6
:104700002A018D2E2E2A4F01190FA910290F991059
:10471000390F8910490F7910590F091710B9302A2C
:104720002A068950598769707978499099392929D9
:1047300069595911790F99449911B910193DA9EF87
:104740002901AC404F51010A1324102B40400C2981
:10475000065920290B391569301A4001B940490F13
:10476000091620D940F960091A90BA24012959B9CB
:0C47700001E1720A1AAA010120000000F9
:0400000508000131BD
:00000001FF
