:020000040800F2
:10000000204A0020D501000887170008450C000889
:1000100085170008B10500089523000800000000BE
:100020000000000000000000000000009101000836
:100030004106000800000000450100088D1D000871
:10004000EF010008EF010008EF010008EF010008D0
:10005000EF010008EF01000831080008EF01000877
:10006000EF010008EF010008C5080008EF010008D3
:10007000EF010008EF010008EF010008EF010008A0
:10008000EF010008EF010008EF010008EF01000890
:10009000EF010008EF010008EF010008EF01000880
:1000A000EF010008EF010008EF010008EF01000870
:1000B000EF010008EF010008EF010008EF01000860
:1000C000EF010008EF010008EF010008EF01000850
:1000D000EF010008EF010008EF010008EF01000840
:1000E00079080008EF010008EF010008EF0100089F
:1000F000EF010008EF010008EF010008EF01000820
:10010000EF010008EF010008EF010008EF0100080F
:10011000EF010008EF010008E11D0008491E00087A
:10012000EF010008EF010008EF010008EF010008EF
:10013000DFF80CD000F0E0F9004800472D3300084C
:10014000204A0020EFF30980BFF36F8F0F4B1A682E
:1001500020E9F00F106008B54FF0BF0080F3118860
:10016000BFF34F8FBFF36F8F03F094FC4FF000008D
:1001700080F31188BDE8084019680868B0E8F00FFE
:1001800080F30988BFF36F8F704700BF1003002012
:10019000074B19680868B0E8F00F80F30988BFF3CF
:1001A0006F8F4FF0000080F311884EF00D0E7047F6
:1001B0001003002006480068006880F3088862B6D3
:1001C00061B6BFF34F8FBFF36F8F00DF00BF00BF7B
:1001D00008ED00E00648804706480047FEE7FEE7D6
:1001E000FEE7FEE7FEE7FEE7FEE7FEE7FEE7FEE7E7
:1001F000911D000831010008D2B201E000F8012B86
:10020000491EFBD270470022F6E710B513460A4696
:1002100004461946FFF7F0FF204610BD421C10F8B7
:10022000011B0029FBD1801A7047F0B480EA01025B
:10023000D40F4200B2EB410F02D2024608461146EB
:100240004A0042D0C30DDDB2C1F3C752AD1A202D12
:1002500035DAC1F3160141F4000204B15242C5F18E
:10026000200602FA06F12A411044B3EBD05F23D0F6
:10027000C4B1012DA0EBC35009DCF0BC4FF000422B
:1002800002EAC352DBB200F5000000F006B94000FC
:1002900000F1807000EBC350A0F1807040EAD17093
:1002A000490009E0490841EAC071A0EBC35000F5DC
:1002B0000000400800EBC350F0BC00F0E5B861421C
:1002C000012202EB4101001BF6E7F0BC704781F010
:1002D0000041AAE780F00040A7E780EA010210B5DC
:1002E00002F00043400022D04A001FD0010E01EB73
:1002F0001261C0F35600C2F3560240F4000042F40B
:100300000002A0FB022000047F39140400D0401C2E
:1003100050EA124001D44000491EC2B20C0604EB60
:10032000D010401C4008802A02D003E0002010BDFD
:1003300020F00100002900DA0020184310BD30B47D
:1003400080EA010202F0004530F0004221F0004056
:1003500013D090B1C30DD40DC2F31601C0F3160033
:10036000E41A41F4000140F400027D34914201D3CB
:10037000641C00E04900002C02DA30BC0020704709
:100380004FF400000023914201D3891A034340082F
:100390004FEA4101F7D151B1914202D14FF00041F2
:1003A00005E002D24FF0010101E06FF0010103EB23
:1003B000C450284430BC00F067B8C10F80EAE07038
:1003C0000844CA079623002100F067B800F00042F5
:1003D00020F00040C10DC0F3160040F400007F295A
:1003E00001DA00207047962903DCC1F19601C8406C
:1003F00001E096398840002AF4D04042704720F04E
:100400000040C10DC0F3160040F400007F2901DA5E
:1004100000207047962903DCC1F19601C84070475F
:100420009639884070472DE9F05F054600209246D6
:100430009B4688460646814640241BE028464146A6
:100440004746224600F079F853465A46C01A914171
:1004500010D311461846224600F060F82D1A67EBBB
:1004600001084F4622460120002100F057F817EB03
:1004700000094E41201EA4F10104DFDC484631464C
:100480002A464346BDE8F09F0029A8BF7047401C9C
:10049000490008BF20F00100704710B4B0FA80FC9A
:1004A00000FA0CF050EA010404BF10BC704749B1D7
:1004B000CCF1200421FA04F411FA0CF118BF012147
:1004C00021430843A3EB0C01CB1D4FEA00614FEA27
:1004D000102042BF002010BC704700EBC3501044F6
:1004E0000029A4BF10BC7047401C490008BF20F081
:1004F000010010BC70470000064C074D06E0E068A4
:1005000040F0010394E8070098471034AC42F6D35A
:10051000FFF712FEFC4000081C410008202A04DB03
:10052000203A00FA02F1002070479140C2F1200306
:1005300020FA03F3194390407047202A04DB203A45
:1005400021FA02F00021704721FA02F3D040C2F1F3
:100550002002914008431946704770B58C1810F876
:10056000015B15F0070301D110F8013B2A1106D1F8
:1005700010F8012B03E010F8016B01F8016B5B1E12
:10058000F9D12B0705D40023521E0DD401F8013BED
:10059000FAE710F8013BCB1A921C03E013F8015B59
:1005A00001F8015B521EF9D5A142D8D3002070BDDD
:1005B000FEE70000F8B5064600200F468DF8000063
:1005C00001F01CFA012294022146684601F090F9DC
:1005D0009DF80000A52801D0012100E00021012F95
:1005E00007D0002211434FF4006521D0A52802D086
:1005F00008E00122F6E7012F04D1C02229460F4866
:1006000001F076F9304602F06FF90028FAD00020A8
:1006100001F0A2FAA5208DF80000012221466846CB
:1006200001F090F9C0222946044801F08BF9F8BD89
:10063000C0222946014801F05BF9F8BD24000020E2
:10064000704700002DE9FC41DFF848814FF4A077A6
:100650000122414601A801F04BF9D320002200906D
:100660003B4611460E2002F05FFDD4207C1E024660
:10067000009023460021082002F056FDD5200246B6
:10068000009023460021072002F04EFDEF2000904D
:100690002346D6220021082002F046FDD8263B231F
:1006A000324603210720009602F03EFDEC2502238E
:1006B000D82219460720009502F036FD3B23EC2294
:1006C00003210F20009502F02FFDEB203B2300902B
:1006D000D92219460F2002F027FDED243B232246A4
:1006E00002210020009402F01FFD3C23D82219466D
:1006F0000020009402F018FD00963E1F3346D822D9
:100700002F210F2002F010FD009540F211152B460D
:10071000D92219460F2002F007FD3346ED22294663
:100720000720009402F000FD711C0B46D822072020
:10073000009402F0F9FC9DF80400322825D0322103
:100740008DF8041014A002F085FA1248FF3801F069
:1007500003FA0122414601A801F0F4F800244FF405
:100760000015EE1205EB042001F0F6F9214617A062
:1007700002F070FA641CB442F4D30021F0233A462C
:10078000084602F039FDBDE8FC8112A002F062FAD1
:10079000F9E70000FFFF1F00C3BBD3D0B3F5CABC0D
:1007A000BBAFD7C0C3E6B5C4CDBCB2E32C20BCB44C
:1007B000BDABBDF8D0D0B3F5CABCBBAF2C207265C1
:1007C00073756C74203D202523780A00B2C1B3FDF7
:1007D00025640A00D2D1BEADB3F5CABCBBAFD7C049
:1007E000C3E6B5C4CDBCB2E30A00000030B4EF29C3
:1007F00000D9EF21B0F5A07F01D340F23F100A4CA1
:100800002246E3881289834201D18A420AD063805A
:10081000A280E08021810A4601460448006830BC7D
:1008200002F0CABF30BC70479A10002008030020B5
:1008300010B5012000F072F8002818D00C4C0121EE
:10084000204600F0A9F9012803D10321094802F04C
:10085000BAFC0121204600F09FF918B9042105488F
:1008600002F0B1FCBDE81040012000F051B810BD0D
:1008700000080140A411002070B54FF40054204638
:1008800000F04CF8002818D00C4D2146284600F006
:1008900083F9012803D10521094802F094FC21467F
:1008A000284600F079F918B90621054802F08BFCBA
:1008B0002046BDE8704000F02BB870BD001001402C
:1008C000A41100201CB5102000F028F8002815D035
:1008D0000BA002F0BFF901210C4801F00DFB002133
:1008E00010208DF806108DF8041000908DF805008A
:1008F000684600F023F8102000F00AF81CBD000044
:10090000B4A5C3FED6D0B6CF0A0000000010004048
:10091000014908607047000014040140064A01467E
:1009200000201268044B0A4014331B680B4202D0AB
:10093000002A00D0012070470004014030B51A4A57
:100940008379016853B313688B431360111D0B68DF
:100950000468A3430B60017911440B6804682343C6
:100960000B60114B083319680468A14319601C1D02
:1009700021680568A94321604179102905D01144F7
:100980000A68006802430A6030BD196802681143B2
:100990001960216800680143216030BD007910446E
:1009A00002688A43026030BD0004014010B5D0E9FE
:1009B0000323934202D14FF0FF3010BDD0E9004134
:1009C000645C491C4160914201D1002141605B1C83
:1009D0000361204610BDC160016100218160C0E952
:1009E00000217047D0E90310081A70478000A0F179
:1009F000C0400029016802D041F0010101E0024A33
:100A00001140016070470000FEFF0F0010B5D0E9F3
:100A100001121143D0E903231A43114342691143E0
:100A200082691143C2691143026A1143426A114348
:100A3000826A1143C26A1143026B11430268920039
:100A4000A2F1C04211608168082907D101688900BC
:100A5000A1F1C0410A6842F040020A60416BD1E94D
:100A6000002342EA03128B688C891B0243EA044389
:100A70001A430B8A42EA03520B7D896942EA0362F8
:100A80000A4301688900A1F1C0414A60C16AB1F519
:100A9000804F08D000686FF070418000A0F1C04026
:100AA000C0F8041110BD816BD1E9002342EA0312A2
:100AB0008B680C8A1B0243EA04531A430B7D896935
:100AC00042EA036200680A438000A0F1C040C0F817
:100AD000042110BD10B58A0721F003040649120F46
:100AE00021440F238C6893409C438C608B6890401A
:100AF00003438B6010BD000000000140F0B5CC78CE
:100B0000002204F00F03E40601D58C7823430C780F
:100B10004FF00F0C14F0FF0F4FF0010E1BD00568C3
:100B20000E880EFA02F42640A64210D196000CFA66
:100B300006F725EA070703FA06F5CE783D43282E87
:100B400002D0482E02D002E0446100E00461521C51
:100B5000082AE5D305600A88FF2A1CD944680022C8
:100B600002F108060EFA06F50E882E40AE420ED1AE
:100B700096000CFA06F7BC4303FA06F7CE783C431E
:100B8000282E00D14561CE78482E00D10561521C37
:100B9000082AE5D34460F0BD0246002092680A426C
:100BA00000D001207047416170470161704700002B
:100BB00070B5104E05460C46307818B900F01EFF8F
:100BC00001203070220AA13AC2EB0211E0B201EB1F
:100BD000421100EB41000102A1F52141C81701EBD0
:100BE00050700549202201EBE001284600F080FE0C
:100BF000002070BDEC000020003018002DE9F05FEF
:100C000081461E464FF6FF7017468846002400EACC
:100C100046054FF4001BDDF828A00FE0381900EB63
:100C2000800108EB811104FB06F02A460BEB410121
:100C300009EB400000F05CFE641CA4B25445EDD307
:100C4000BDE8F09FFEE7000010B501F003FA01F0E7
:100C5000FDFA00F073FD0BA001F0FCFF00F054FA68
:100C600001F0BAFC09A001F0F5FF00210320FFF715
:100C7000A1FC0FA001F0EEFF00F0BEFCBDE81040AB
:100C8000FFF7E0BCC4E3BAC30A000000B3F5CABC76
:100C9000BBAFB4A5C3FEC6C12C20CDACCAB1B3F561
:100CA000CABCBBAF535049466C6173680A00000070
:100CB000B3F5CABCBBAFC6C1C4BB2CBBE6D6C6D756
:100CC000C0C3E6D6D00A0000044A00284FF4805181
:100CD000104601D0FFF767BFFFF767BF0014014060
:100CE00030B51D46144600F021FA044904FB05F016
:100CF0004989BDE8304000F0FDB80000F400002054
:100D000001B5009801E0401E00900028FBD108BD0D
:100D10002DE9F841204F0E468046F968203A95B2F9
:100D20008888CA8803465043C41700EB5470C0F348
:100D3000C7040868009205FB04053246414617487F
:100D400000F0A8FBF8683146C3888288404600F06E
:100D5000EDF92C20C10608800021114E80223F8928
:100D6000DFF838C013E000206B5C22FA00F813EAC9
:100D7000080F01D0378004E000EBC1033CF81330CA
:100D80003380401CC0B20828EED3491CC9B2A1422E
:100D9000E9D3BDE8F8810000F40000205A0A0020E1
:100DA00000000260F0B50E46054600240F4F19E022
:100DB000F8687B8881882144994203D9C18800243E
:100DC00029448DB2C088B9882844884201D90024BA
:100DD000254629462046FFF79BFFF868761C808849
:100DE000204484B23278002AE2D1F0BDF400002021
:100DF0002DE9FE4F0026A2EB000883465F1A701E05
:100E000035460191B8F1000F02DD4FF0010102E01B
:100E100003D14FF00001009102E0C8F100080090FA
:100E2000002F02DD4FF0010002E003D14FF000007F
:100E3000824602E08246C7F100074046B84501DD20
:100E4000044600E03C46601C4FF00009029018E0A8
:100E50005846019900F08EFB46443D44A64205DD0C
:100E60000099361B0BEB01001FFA80FBA54204DD45
:100E700001982D1B504480B2019009F101001FFA26
:100E800080F902998945E3DDBDE8FE8F00B597B092
:100E90003C2108A8FFF7B7F91C2101A8FFF7B3F917
:100EA0000121080200F0ACFC012001900420039015
:100EB000800607900020029004900590069008217B
:100EC0000890CDE909011021CDE90B100E9009021F
:100ED0000F90CDE9100112901390149001A8159075
:100EE000169008A8FFF792FD01210020FFF77EFD74
:100EF00017B000BD10B500222C23DC062380034B65
:100F000001E01980521C8242FBD310BD0000026038
:100F10002DE9F84F0121602000F08AFC03248DF8B0
:100F2000024018258DF803504FF48046ADF800605C
:100F300069465148FFF7E2FD7700ADF80070694659
:100F40004D48FFF7DBFD0120ADF8000069464A4837
:100F5000FFF7D4FD0220ADF8000069464648FFF7D0
:100F6000CDFD8020ADF8000069464448FFF7C6FD7E
:100F70004FF48078ADF8008069464048FFF7BEFD29
:100F80004FF40079ADF8009069463C48FFF7B6FD94
:100F90004FF4806AADF800A069463848FFF7AEFD0F
:100FA000F010ADF8000069463448FFF7A7FD4FF494
:100FB000805BADF800B069463048FFF79FFD7010C8
:100FC000ADF8000069462D48FFF798FDADF80060C8
:100FD00069462A48FFF792FDADF800706946274838
:100FE000FFF78CFDADF8008069462348FFF786FDCA
:100FF000ADF8009069462048FFF780FDADF800A0ED
:1010000069461D48FFF77AFD8DF802408DF80350C0
:101010001025ADF8005069461748FFF76FFD2020F6
:10102000ADF8000069461448FFF768FD8020ADF870
:10103000000069461048FFF761FDE801ADF80000C7
:1010400069460D48FFF75AFD8DF803508DF80240B0
:101050000220ADF8000069460848FFF74FFD8DF803
:1010600003508DF80240ADF800B069460248FFF722
:1010700045FDBDE8F88F0000001401400018014054
:1010800030B507283AD81E4BC4074FF0F00118704E
:101090004FF4A07213D05A80998036210C0721801A
:1010A000DA881849A2F51345413D04D0A2F505455B
:1010B000523D07D008E0082242EA401003E0598080
:1010C0009A80EAE7400108802A20208000200880DA
:1010D00008805888401EC0F307220A80C0B20880EA
:1010E0002B2020800020088008809888401EC0F3B4
:1010F00007220A80C0B208802C20208030BD00006A
:10110000F40000200000026010B5FFF701FFFFF7B8
:10111000BDFE0120FFF7D8FD00F012FA00F026F81E
:10112000BDE810400320FFF7ABBF000070B54FF0E3
:10113000C0462A2434800C4C050A2580C5B225807F
:101140001044401E020A2280C0B220802B20308032
:10115000080A2080C8B22080C818401E010A2180D9
:10116000C0B2208070BD00000000026010B500F029
:101170006DF9B349B44AA0F51343C880B1494FF0A3
:10118000C044413B7ED0A0F50543523B7BD1CF20EC
:10119000208000200880C120088030200880ED20B9
:1011A000208064200880032008801220088081208D
:1011B0000880E82020808520088010200880782082
:1011C0000880CB202080392008802C200880002037
:1011D00008803420088002200880F720208020200A
:1011E0000880EA202080002008800880C02020801D
:1011F00021200880C120208011200880C520208067
:101200002D20088033200880362020800020088090
:101210003A20208055200880B120208000200880BE
:1012200017200880B62020800A200880A22008808D
:10123000F62020800120088030200880F2202080C5
:10124000002008802620208001200880E0202080C7
:10125000D020088000200880022008800720088015
:101260000B2008801A200880312008805420088034
:1012700040200880292008801220088008800880EB
:10128000172001E029E027E00880E1202080D0201D
:1012900008800020088002200880072008800520A0
:1012A0000880252008802D200880442008804520C3
:1012B00008801C20088018200880162008801C2028
:1012C00008801D200880112020801046FFF718FD9F
:1012D000292020802C20208010BDCF2020800020BD
:1012E00008808120088030200880ED202080642044
:1012F0000880032008801220088081200880E820D0
:101300002080852008801020088078200880CB204D
:101310002080392008802C2008800020088034207C
:10132000088006200880F720208020200880EA20FE
:101330002080002008800880B120208000200880C4
:101340001B200880B62020800A200880A220088068
:10135000C020208035200880C120208011200880F6
:10136000C5202080452008800880C7202080A2203A
:101370000880F22020800020088026202080012084
:101380000880E02020800F2008802620088024206C
:1013900008800B2008800E20088009200880542037
:1013A0000880A8200880462008800C20088017208C
:1013B0000880092008800F2008800720088000206E
:1013C0000880E120208000200880192008801B2050
:1013D00008800420088010200880072008802A2028
:1013E00008804720088039200880032008800620D4
:1013F0000880088030200880382008800F2008806E
:1014000036202080C82008802A20208000200880E4
:1014100008800880EF2008802B2020800020088092
:101420000880012008803F2008803A202080552035
:101430000880112020801046FFF762FC29204AE72F
:10144000F400002000000260FCBF020010B54FF065
:10145000C043042018800E490888088808884FF681
:10146000FF7404EA002208881043A0F50542523AAE
:101470000DD0D320188008880888088804EA002244
:1014800008881043A0F51341413900D0002010BD59
:10149000000002602DE9F047994615460E46DDF83A
:1014A00020A0044653464A4629463046FFF73EFEF2
:1014B0004FF0C0412E200880DFF88080B8F800008F
:1014C00009FB0AF300204FF4FC6703EBD37C1CE01C
:1014D000B8F80050B8F80020B8F8001005F47846C5
:1014E00007EAC5052E4346EAD22524F8205007EA2C
:1014F000511502F0F80245EA0222C1F3C4010A4381
:1015000004EB8001401C4A8080B2B0EB6C0FDFDB43
:1015100009EA0A00C0070ED0B8F80000B8F80010B9
:1015200000F4784207EAC000024342EAD12004EB0B
:10153000430121F8020CBDE8F087000000000260C2
:1015400070B5094C02212046FFF72DFB40F6FF2520
:101550002846FFF7D5FB02212046FFF726FB284649
:10156000BDE87040FFF7CCBB0018014001231A46CC
:10157000FFF7DCBD10B5084C628890420AD2A28801
:10158000914207D2FFF7F2FF2189BDE81040012008
:10159000FFF7B0BC10BD0000F40000204FF0C041C8
:1015A0000880704701490880704700000000026011
:1015B00010B5FFF749FB0D481021017041700A304A
:1015C00001F08EFE0AA334223C210A4801F0D0FE2D
:1015D00002F006F8074A1021103AA2F11800FFF7AE
:1015E000FAF9BDE8104000F011BE00009A1000208A
:1015F000BDB90000CC1100207FB54FF4C06000F0F1
:10160000F5F806208DF8080001248DF80940022025
:101610008DF80A008DF80B4002A800F0B5F82820DC
:101620008DF8080002A800F0AFF80121142000F0A6
:10163000FFF8ADF80C4004258DF80F5003A91448AD
:10164000FFF75CFA6603ADF80C608DF80F5003A944
:101650001048FFF753FA0121084600F0E9F800218D
:101660000846FFF737FA8DF8064000208DF8040091
:1016700010208DF8050000946846FFF75FF90D21F2
:101680000220FFF727FA68460096FFF757F97FBD5B
:10169000000801400010014010B503280AD00428BA
:1016A0000AD005280AD0062811D109A0BDE81040AB
:1016B00001F0D0BA09A0F9E70BA0F7E70D480289BD
:1016C000C1880D48006802F077F80CA0EEE710BD65
:1016D0004B6579322075700A000000004B65793146
:1016E00020646F776E0A00004B6579312075700AAF
:1016F000000000009A1000200C0300204B65793296
:1017000020646F776E0A00000148C06870470000CF
:10171000F4000020014A108151817047F40000203C
:1017200002490148C8607047E4000020F40000202E
:101730000149088170470000F400002038B50121FC
:10174000082000F075F80120ADF8000010218DF898
:1017500003100B4C8DF8020069462046FFF7CEF9C6
:101760000221ADF8001069462046FFF7C7F9202195
:10177000ADF8001069462046FFF7C0F938BD0000FB
:10178000000C0140FEE7704730B50F23C2780178A6
:101790000125F2B1144A126801F1E02102F4E0627D
:1017A000C2F5E062120AC2F10404D3404278A240BA
:1017B00084781C401443220181F80024007800F052
:1017C0001F018D404009800000F1E020C0F8005169
:1017D00030BD01F01F0085404809800000F1E02085
:1017E000C0F8805130BD00000CED00E00249084314
:1017F00002490860704700000000FA050CED00E0A7
:10180000044A0029516901D0014300E0814351613C
:101810007047000000100240044A0029D16901D03D
:10182000014300E08143D161704700000010024095
:10183000044A0029916901D0014300E0814391618C
:10184000704700000010024030B5204A5168204B1C
:1018500011F00C0103D0042901D0082901D0036044
:1018600012E05168536801F470114FF0020413F450
:10187000803F04EB914102D053689B0301D5154B87
:1018800000E0134B5943016051680F2303EA111123
:10189000114B5C5C0168E14041605468072505EA32
:1018A00014241C5D21FA04F48460546805EAD424ED
:1018B0001B5DD940C1605268032303EA9232064B94
:1018C0001B1F9A5CB1FBF2F1016130BD00100240B8
:1018D00000127A0000093D00040000200029018860
:1018E00002D041F0400101E021F040010180704749
:1018F0002DE9F041124E0F460446154601213046AF
:10190000FFF751F9032000F04BF9C7F3074000F04F
:1019100047F9C7F3072000F043F9F8B200F040F9A7
:1019200004E0FF2000F03CF904F8010B6D1EADB29D
:10193000F7D23046BDE8F0410121FFF736B900008B
:10194000001001402DE9F04706460D4611F0FF005A
:10195000C0F10001CFB24FEA122402F0FF094FF4A8
:10196000807A13D0E8B24042C0B205EB00080CB355
:10197000D01B80B2040A00F0FF093A4629463046DF
:1019800000F09CF83E44454657462DE06CB1574662
:10199000641EE4B20CD33A462946304600F08EF875
:1019A00005F5807506F58076F2E7294630460EE0AB
:1019B0004A46FAE7B945F8D9A9EB0700C4B23A4656
:1019C0002946304600F07AF84146F0192246BDE833
:1019D000F04700F073B83A462946304600F06EF8FA
:1019E00005F5807506F58076641EE4B2F3D2B9F190
:1019F000000001D00246D8E7BDE8F08770B50121AC
:101A000086B00803FFF714FF0121D420FFF710FF71
:101A10000124ADF8144003208DF816001020244D49
:101A20008DF8170005A92846FFF768F82020ADF8C3
:101A3000140018201F4E8DF8170005A93046FFF737
:101A40005DF84021ADF8141005A93046FFF756F8AF
:101A50008020ADF8140005A93046FFF74FF80121AA
:101A60002846FFF7A2F80020ADF800004FF482717D
:101A7000ADF80210ADF804000221ADF80610ADF883
:101A800008400902ADF80A100821ADF80C10ADF8B5
:101A90000E000720084CADF810006946204600F003
:101AA000E4F801212046FFF719FF06B070BD0000E1
:101AB0000010014000080140003001402DE9F041D4
:101AC00014460F46054600F0B3F8154E0121304686
:101AD000FFF769F8022000F063F8C7F3074000F051
:101AE0005FF8C7F3072000F05BF8F8B200F058F891
:101AF000B015844208D904460AA001F0ABF803E00F
:101B0000287800F04DF86D1C641EA4B2F8D20121B3
:101B10003046FFF74AF8BDE8F04100F073B8000026
:101B2000001001403C3C2D464C4153482D4552523B
:101B30004F522D3E3E205350495F464C4153485F23
:101B400050616765577269746520746F6F206C61AE
:101B5000726765210A00000070B5044600F068F85D
:101B600000F050F80D4D01212846FFF71CF8202009
:101B700000F016F8C4F3074000F012F8C4F3072091
:101B800000F00EF8E0B200F00BF801212846FFF754
:101B90000CF8BDE8704000F035B8000000100140BE
:101BA0002DE9F041154C4FF4805507462560144E41
:101BB00003E02068411E216010D30221304600F06E
:101BC00049F80028F5D03946304600F04CF8256039
:101BD00009E02168481E206005D2012000F062F86B
:101BE000C0B2BDE8F0810121304600F033F8002892
:101BF000EFD0304600F035F8F2E70000F0000020AA
:101C00000030014010B5094C01212046FEF7CBFF02
:101C10000520FFF7C5FFFF20FFF7C2FFC007FAD17D
:101C20002046BDE810400121FEF7BFBF0010014073
:101C300010B5074C01212046FEF7B5FF0620FFF73F
:101C4000AFFF2046BDE810400121FEF7AEBF000007
:101C5000001001400246002012890A4200D00120F3
:101C60007047808970478181704730B502884C8801
:101C700002F441530A88CD8822438C882C432243A6
:101C80000C8922434C8922438C892243CC892243EC
:101C90001A430280828B22F400628283098A0182C5
:101CA00030BD000010B5014602A000F0D3FF0020B7
:101CB00010BD00003C3C2D464C4153482D4552522E
:101CC0004F522D3E3E2053504920B5C8B4FDB3AC11
:101CD000CAB1216572726F72436F6465203D202521
:101CE000640A00000CB500222648009201920168A7
:101CF00041F4803101604FF4A063016801F40031C8
:101D000001910099491C0091019911B900999942DA
:101D1000F3D10168890333D5012101911A490A6879
:101D200042F010020A600A6822F003020A600A68A0
:101D300042F002020A6041684160416841604168C6
:101D400041F480614160416821F47C114160416847
:101D500041F4E8114160016841F08071016001685F
:101D60008901FCD5416821F003014160416841F0DF
:101D7000020141604168C1F381010229FAD10CBD21
:101D800001920CBD0010024000200240704700008C
:101D90000F4810B5016841F00101016041680D4A2A
:101DA0001140416001680C4A11400160016821F452
:101DB00080210160416821F4FE0141604FF41F0160
:101DC0008160FFF78FFF05494FF00060086010BD8C
:101DD000001002400000FFF8FFFFF6FE08ED00E0F3
:101DE0001CB5164C0121204600F090F8002824D0A4
:101DF00010211348FEF7D0FED0B10221114801F0A6
:101E0000E2F90021204600F077F801218DF8061054
:101E1000102000218DF8041000908DF80500684610
:101E2000FEF78CFD2046BDE81C40012100F061B8A2
:101E30000121044801F0C7F9F4E71CBD001000407F
:101E400000180140A41100202DE9F047DFF884902C
:101E500000250121484600F059F8002838D01E4ED0
:101E60003068401C30607168814205D94846BDE841
:101E7000F047012100F03DB8184FB4684FF0010859
:101E80003168606888420ED8C4F80880217CE06818
:101E900001F099F93868844200D10125246810A026
:101EA00000F0D8FEECE7B46060687060012148463D
:101EB00000F01FF8002D0BD06421386801F0C4FD3C
:101EC00009494FF080500860BFF34F8FBFF36F8F09
:101ED000BDE8F08700140040B0210020240300205A
:101EE000CAB1BCE4B5BD0A0004ED00E0C9430182FB
:101EF0007047C943018270470029018802D041F030
:101F0000010101E021F0010101807047024600203B
:101F1000138A92890B4202EA010202D0002A00D001
:101F200001207047002A828901D00A4300E08A43D9
:101F30008281704730B502881B4C1C4DA0420DD0E9
:101F4000A8420BD0B0F1804F08D0194B984205D071
:101F5000184B984202D0184B984203D122F07003DC
:101F60004A881A43154B984206D0154B984203D025
:101F700022F44073CA881A4302808A8882850A88BC
:101F80000285A0420AD0A84208D00E4A904205D04D
:101F90000D4A904202D00D4A904201D1097A018641
:101FA0000121818230BD0000002C0140003401403D
:101FB0000004004000080040000C004000100040F9
:101FC000001400400040014000440140004801402E
:101FD0003EB501211020FFF71FFC01212020FFF753
:101FE0001BFC40F2CF20ADF80000002040F2E734A7
:101FF000ADF80440154DADF80600ADF802008DF8BF
:10200000080069462846FFF795FFADF804408F2188
:102010000F4CADF8001069462046FFF78BFF0121F9
:102020002846FFF763FF012211462846FFF77AFF93
:1020300001212046FFF75AFF012211462046FFF7F3
:1020400071FF01212046FFF757FF3EBD0010004001
:102050000014004038B5FFF7BBFF4FF4C0652846B9
:10206000FFF7C4FB36208DF8000001248DF80140F5
:1020700002208DF802008DF803406846FFF784FBCC
:102080002846FFF7B3FB37208DF800008DF801409C
:1020900004208DF802008DF803406846FFF774FBBA
:1020A00038BD00000D486421006801F0CDFC0C4CE7
:1020B000206880F0010020600A48FEF793FC0028A9
:1020C000FAD00848FEF772FC082803D1206880F097
:1020D0000100206004A000F0BDFDEDE72403002016
:1020E0000C0C0140A4110020C8CECEF1310A000032
:1020F0000A4C0B4D0B48FEF775FC58B10948FEF72A
:1021000055FC082803D1206880F02000206006A03C
:1021100000F0A0FD286901F029FCEBE70C0C014060
:1021200010030020A4110020C8CECEF13200000020
:102130001CB501F0F1FB154CE06001F0D5FB144932
:102140002061A1F52070CDE900010023502211A1EA
:10215000124801F0B1FCE1680023502248600C49AC
:102160001831A1F5AC70CDE900010DA10E4801F0C8
:10217000A3FC21694860E06801F0E8FB206901F0F8
:10218000E5FBBDE81C4001F07BBC00001003002013
:10219000802100205461736B31000000A5200008ED
:1021A0005461736B32000000F120000810B50C4C34
:1021B00008280CD0092812D101460AA000F04AFDD7
:1021C00060684FF4FA71BDE8104001F03DBC014673
:1021D00009A000F03FFD4FF47A712068F3E710BDCD
:1021E000240300200A74696D65326F7574206920BC
:1021F0003D2025640A0A00000A74696D65316F7517
:10220000742069203D2025640A0A000000B501F011
:1022100003FC074B074908221860C160027401F0F3
:10222000FBFB044A58600921C260017400BD000034
:1022300024030020A41100200029818902D041F448
:10224000005101E021F400518181704710B586B042
:1022500001210420FFF7ECFA01218803FFF7E8FAD7
:102260004FF40070ADF8100018208DF81300012015
:10227000154C8DF8120004A92046FEF73FFC2115ED
:10228000ADF8101004218DF8131004A92046FEF7B4
:1022900035FC4FF4E13000900020ADF80800ADF8B7
:1022A00004000C21094CADF80600ADF80A10ADF899
:1022B0000C006946204600F013F801212046FFF784
:1022C000BBFF06B010BD000000080140003801400F
:1022D0000246002012880A4200D001207047000008
:1022E00030B50446008A85B00D464CF6FF710840B3
:1022F000E98801432182A0894EF6F3110840A9889C
:102300002A8911436A8902431143A181A08A4FF6A9
:10231000FF410840A9890143A1826846FFF794FA6A
:102320001948844201D1039800E00298A189090468
:1023300000EBC00101EB0010296801D5490000E065
:102340008900B0FBF1F06422B0FBF2F109010B0946
:102350006FF018056B4300EB8300A3891D044FF059
:10236000320306D503EBC000B0FBF2F000F007002B
:1023700005E003EB0010B0FBF2F000F00F000843A3
:10238000208105B030BD000000380140C1F30801D4
:1023900081807047FEE72DE9F0470C460546B1F90C
:1023A0000010B4F9100016460A1AB4F90A30B4F94C
:1023B000121001275B1A5A43B4F90830C01AB4F955
:1023C0000230591A00FB0120FDF7F7FF10F0FF4F14
:1023D000B0617ED0B5F90010B5F91000B4F90A303B
:1023E0000A1AB4F912105B1A5A43B5F90830C01A28
:1023F000B4F90230591A00FB0120FDF7DEFF30600E
:10240000B4F90000B4F91010B5F90830421AB5F962
:1024100010001B1A5A43B5F90030C01AB4F908303D
:10242000591A00FB0120FDF7C8FF7060B4F91030A5
:10243000B5F90890B4F90820B5F9101003FB09F0BC
:1024400002FB110CB4F902000CFB00FCB4F9000013
:1024500000FB01F8B5F9001003FB1183B4F90A8001
:102460004A4303FB08C300FB1920B4F9121000FB18
:102470000130FDF7A2FFB060B5F90200B5F9121006
:10248000B4F90A30421AB4F912001B1A5A43B5F9CA
:102490000A30C91AB4F90230181A01FB0020FDF7FE
:1024A0008CFFF060B4F90000B4F91010B5F90A30EF
:1024B000421AB5F912001B1A5A43B5F90230C01A74
:1024C000B4F90830591A00FB0120FDF776FF30619E
:1024D00000E027E0B4F91020B5F90A80B4F908103B
:1024E000B5F9123002FB08F001FB130CB4F902003D
:1024F000B5F902500CFB00FCB4F9000069434343FA
:1025000002FB1532B4F90A3000FB181002FB03C2BB
:10251000B4F9121000FB0120FDF74FFF706138463F
:10252000BDE8F0870027FAE701B5002104E00C20A0
:10253000401EC0B2FCD2491C00988142F7D308BDAE
:102540002DE9FC4706460D464FF00109684600F0AC
:10255000FDF8C8B3BDF90200FDF72FFF02461D4884
:10256000007800EB400805EBC80410466168FDF7F1
:10257000B4FE0746BDF90000FDF71FFF55F83810FF
:10258000FDF7ABFE3946FDF750FEA168FDF74DFEA5
:10259000FDF71CFF3080BDF90200FDF70EFF216939
:1025A000FDF79BFE0546BDF90000FDF706FFE1685B
:1025B000FDF793FE2946FDF738FE6169FDF735FE0C
:1025C000FDF704FF708002E0FFE74FF00009484686
:1025D000BDE8FC87F40000202DE9FF4701216020C1
:1025E000FFF726F94FF4C060FFF700F90A208DF8D5
:1025F0000C0001248DF80D408DF80E408DF80F4031
:1026000003A8FFF7C1F8ADF80040DFF898908DF807
:10261000024010258DF8035069464846FEF76EFAD1
:102620000427ADF8007069464846FEF767FA0820AF
:10263000ADF800008DF8024048208DF8030069468F
:102640004846FEF75BFA6603ADF80060DFF8588095
:102650008DF802408DF8035069464046FEF74EFA69
:1026600031464046FEF79FFAADF800508DF80370F2
:1026700069464846FEF742FA01210846FFF7D8F8B6
:1026800004210846FEF726FA8DF80A4000208DF84E
:10269000080001958DF8095001A8FEF74FF9BDE833
:1026A000FF870000001801400014014070B5264E5D
:1026B000054604213046FEF776FA01213046FEF742
:1026C00072FA0024C4F1070025FA00F0C0074FF0A9
:1026D0000401304602D0FEF768FA01E0FEF763FA23
:1026E0000520FFF721FF01213046FEF75EFA0520A5
:1026F000FFF71AFF01213046FEF755FA641CE4B2D9
:10270000082CDFD3002504213046FEF74CFA0121C6
:102710003046FEF74AFA002401213046FEF743FA1C
:1027200008213046FEF738FAC4F10B0188402843EF
:1027300085B201213046FEF738FA641CE4B20C2C55
:10274000EAD3284670BD0000001801402DE9F04191
:102750008CB00546002628216846FDF754FDDFF8B9
:1027600028816C469020FFF7A1FF07460120FFF764
:10277000DBFED020FFF79AFFADF82870ADF82C00F3
:1027800024F8167004EB4601761C8882F6B21021FC
:102790004046FEF701FA08B90A2EE3D3102140465D
:1027A000FEF7FAF910B13949002008700A2E03D05B
:1027B00000200CB0BDE8F081BDF90060BDF9140047
:1027C000B44667460346012134F91120BA4201DAC2
:1027D000174602E0B24200DD1646491CC9B20A297A
:1027E000F2D3012104EB4102B2F914209A4201DA3A
:1027F000134602E0824200DD1046491CC9B20A2994
:10280000F0D3BDF90210BDF90420BDF906406144C2
:1028100022441144BDF908201144BDF90A20114495
:10282000BDF90C201144BDF90E201144BDF9102052
:102830001144BDF912201144C91B891BC9102980FC
:10284000BDF91410BDF91620BDF91A401144BDF9A7
:10285000182022441144BDF91C201144BDF91E204A
:102860001144BDF920201144BDF922201144BDF9C5
:1028700024201144BDF926201144C91A081AC01099
:102880006880012095E70000001801401400002036
:102890007047000070B51149202301220C1D02254C
:1028A00001280B6006D00A602560BDE870400C4826
:1028B00000F018B822600D60094909480831FFF797
:1028C0003FFE074C61882088FDF790FF2046FFF708
:1028D000DFFF2088A0806088E08070BD100C014080
:1028E0001C000020704700002DE9F14FB2B0BD4838
:1028F000FEF716FF00211F20FEF70CFF3298FEF7AF
:10290000BFFBB94DB94EAA462A88B1469108ADF829
:102910008410338802EB4202ADF88C1042F38F0230
:10292000980803EB430141F38F01ADF89420ADF813
:102930009C20ADF88600ADF88E10ADF89610ADF87D
:102940009E0000240DF1A40B00214D46B9F8003083
:102950005646BAF800200846FEF7C2F90FF2902852
:10296000FEF7D2FE80883188B1FBF0F74046FDF7D4
:1029700055FC381A42082023A3A101A8CDF80080F5
:1029800000F078F9288801A94008FEF70BFAFEF755
:10299000BBFE80883188671CB1FBF0F0401E00EB65
:1029A000D070421020239AA101A8009700F062F98C
:1029B000FEF7AAFEC0882988C0EB510080B201A9A9
:1029C000FEF7F0F99448FFF7AFFD21A830F8345036
:1029D00000EBC400468805F10A0082B21438334681
:1029E00080B21946FEF704FA06F10A0083B20A3EE5
:1029F0002A46B1B21046FEF7FBF90BEBC4042046A1
:102A0000FFF7A4FE0028FAD0FCB2042C9CD31AAA2B
:102A100029A921A8FFF7BFFC2098DFF8008210F059
:102A2000FF4F79D0BDF9BE00FDF7C7FC05461B99E5
:102A3000FDF753FC0446BDF9BC00FDF7BEFC06469D
:102A40001A99FDF74AFC2146FDF7EFFB1C99FDF7AB
:102A5000ECFB2099FDF773FCFDF7D1FC84B228460E
:102A60001E99FDF73AFC054630461D99FDF735FCE9
:102A70002946FDF7DAFB1F99FDF7D7FB2099FDF7F3
:102A80005EFCFDF7BCFCBDF99C1080B2A14201DAEE
:102A9000611A00E0091B8AB2BDF99E10814201DA79
:102AA000401A00E0081A80B20F2A54D80F2852D8D2
:102AB00020991A98FDF743FC3299594D01EB4104D6
:102AC00045F8340020991B98FDF739FC05EBC40448
:102AD000606020991C98FDF732FCA06020991D9839
:102AE000FDF72DFCE06020991E98FDF728FC206181
:102AF000DDE91F01FDF723FC606100214D46B9F8B7
:102B000000305646BAF800200846FEF7E9F84FF4C0
:102B1000FC60FEF70DFE00E01DE042A4FEF7F4FDB0
:102B200080883188B1FBF0F62046FDF777FB301A3C
:102B30004208202334A101A8009400F09BF82888C3
:102B400001A94008FEF72EF94046FFF7EDFC0120F1
:102B500033B0BDE8F08F00214C46B9F8003055463F
:102B6000BAF800200846FEF7BBF84FF47840FEF7AD
:102B7000DFFD31A6FEF7C8FD80882988B1FBF0F79C
:102B80003046FDF74BFB381A420820231EA101A84E
:102B9000009600F06FF8208801A94008FEF702F9BE
:102BA00029A6FEF7B1FD80882988B1FBF0F53046F3
:102BB000FDF734FB281A4208202313A101A8009630
:102BC00000F058F8FEF7A0FDC088218800EB510006
:102BD00080B201A9FEF7E6F84046FFF7A5FC002009
:102BE000B6E70000E4000020F6000020F800002016
:102BF000546F7563682043616C696272617465200B
:102C00002E2E2E2E2E2E0000252A63257300000066
:102C1000252A632564000000E093040040420F0071
:102C20002400002043616C696272617465205375F1
:102C3000636365640000000043616C6962726174E3
:102C400065206661696C0000747279206167616952
:102C50006E0000000FB4054B10B503A9044A02989A
:102C600000F02CF810BC5DF814FB00006D32000879
:102C70002C0300200FB4084B10B504A902AA039836
:102C800000F01CF8044602A9002000F048FA204693
:102C900010BC5DF814FB00001F31000802E008C8FA
:102CA000121F08C1002AFAD170477047002001E0C6
:102CB00001C1121F002AFBD1704700002DE9FF4F10
:102CC0008DB00F460546002606E025280BD0DDE92D
:102CD0000F1290476D1C761C28780028F5D111B092
:102CE0003046BDE8F08F0024A246A1460122EC49FF
:102CF00000E0044315F8013F203B02FA03F00842CC
:102D0000F7D128782A2810D06FF02F022878A0F168
:102D10003001092914D80AEB8A0102EB410144F081
:102D2000020400EB010A6D1CF0E701CF5FEA000A24
:102D300003D544F40054CAF1000A44F002046D1CA7
:102D400028782E2817D115F8010F44F004042A28FA
:102D50000ED06FF02F022878A0F1300109290AD88F
:102D600009EB890102EB410100EB01096D1CF2E75F
:102D700057F8049B6D1C28786C280FD006DC4C2873
:102D800017D068280DD06A2814D104E0742810D018
:102D90007A280FD10DE044F400140AE044F48014C2
:102DA00001E044F440146978814202D104F58014B2
:102DB0006D1C6D1C2A786E2A1FD00CDC632A31D062
:102DC00004DC002A8BD0582A11D1A3E0642A68D0F1
:102DD000692A0CD165E0732A2ED004DC6F2A73D0E7
:102DE000702A04D19BE0752A6FD0782A6ED01046E5
:102DF000DDE90F129047761C50E1C4F3025002281F
:102E000006D0032809D0042801CF09D0066045E187
:102E100001CFF117C0E9006140E101CF06803DE13B
:102E200006703BE117F8040B8DF8000000208DF8C8
:102E30000100EB46012003E057F804BB4FF0FF30E0
:102E400061074FF0000102D40DE008F1010188464E
:102E500049450FDA8045F8DB1BF808100029F4D14A
:102E600008E008F1010188468142FADB1BF80810EE
:102E70000029F6D1DDE90F23AAEB0800814621469F
:102E800000F036F9304400EB080604E0DDE90F12EB
:102E90001BF8010B9047B8F10108F7D221464846CC
:102EA000F7E00A21C4F302534FF0000B0891022B04
:102EB00004D001CFC117032B09D00AE0FF1D27F072
:102EC0000707F7E8020108E032E01FE020E000B267
:102ED000C117042B01D140B2C117031E71F10003C9
:102EE00007DA4FF0000CD0EB0C006CEB01012D2346
:102EF00002E0230504D52B238DF82430012303E0C1
:102F0000E30701D02023F7E7984658E00A2110E0B4
:102F100010210EE010204FF0000B08900CE0102163
:102F20004FF0000B44F004044FF00809089103E04F
:102F300008214FF0000B0891C4F30253022B04D078
:102F400001CF0021032B06D006E0FF1D27F0070765
:102F5000F7E8020103E080B2042B00D1C0B24FF0C9
:102F6000000823072BD5702A07D0DDF820C08CF08D
:102F7000100C5CEA0B0C05D00EE040238DF82430D9
:102F8000012308E050EA010306D030238DF82430F5
:102F90008DF8252002239846DDF820C08CF0080C1F
:102FA0005CEA0B0C0BD150EA010301D1630706D593
:102FB00030238DF824304FF00108A9F10109582A77
:102FC00004D038A20B9208AA0A920BE03AA2F9E7C1
:102FD0005B46089AFDF727FA0B9B9B5C0A9A521EE8
:102FE0000A92137050EA0102F2D10A98ADEB000088
:102FF00000F1200B600702D524F4803401E04FF08B
:103000000109D94502DDA9EB0B0000E0002000EB2F
:103010000B0141440890AAEB010AE00306D4DDE964
:103020000F232146504600F063F806444FF0000994
:1030300008E009A911F80900DDE90F12904709F12C
:103040000109761CC145F4DBE0030CD5DDE90F2353
:103050002146504600F04CF8064404E0DDE90F122A
:1030600030209047761C0899481E08900029F5DC0E
:1030700008E00A980A990078491C0A91DDE90F12C4
:103080009047761CBBF10001ABF1010BF1DC21464E
:103090005046DDE90F2300F019F806446D1C1BE6CD
:1030A000092801003031323334353637383961621E
:1030B00063646566000000003031323334353637E2
:1030C0003839414243444546000000002DE9F041B3
:1030D000044600251E461746880404D405E03946F8
:1030E0002020B0476D1C641EF9D52846BDE8F0814C
:1030F0002DE9F041044600251E469046C80301D53F
:10310000302700E02027880404D505E041463846F2
:10311000B0476D1C641EF9D52846BDE8F0810A68E9
:10312000531C0B60107070472DE9F041064606985D
:103130001C46851A641A641C97B26D1C1FFA84FC25
:1031400088B2ABB262463946FDF7F0FF044904FB92
:1031500005F031F81610BDE8F041FDF7CBBE0000D8
:10316000040100202DE9F0411F4614468C46069DBF
:103170000646ABB2BAB2A1B21FFA8CF0FDF7D6FF89
:103180002C20FEF70BFA00247D4304E036F81400EF
:10319000FEF708FA641CA542F8D8BDE8F081F0B546
:1031A00005AC94E8A0400BE01C4605FB01F604E0EA
:1031B00000EB040C641C06F80C20BC42F8DD6D1C0E
:1031C0007545F1DDF0BD02697AB183680268D154BA
:1031D0008168491C8160C268914201D100218160EF
:1031E0000169491E016100207047416941F00101F8
:1031F00041614FF0FF3070472DE9F04388460646A5
:10320000A3EB0800401C1FFA80F9901B401CADF591
:10321000217D87B200241EE0012008EB0405009008
:10322000AAB2B1B23B4601A8FEF734F94FF6FF70DF
:1032300000EA470205EB850006EB80104FF4001111
:1032400001EB400101A8FEF77DFB214605A0FFF739
:1032500001FD641CA4B24C45DED30DF5217DBDE813
:10326000F0830000D0B4C8EB25640A0070B5074DA8
:103270000446C1B22846FFF789F880212846FFF7A7
:1032800027F80028F9D0204670BD00000038014022
:1032900010B5002821D0114B0022001F196803E04F
:1032A000814203D80A4649680029F9D152B113680E
:1032B000841A9C4204D1006818441060104602E051
:1032C000506000E0186039B102680B1A934203D1D4
:1032D0000B681A4402604968416010BD3003002049
:1032E000F0B500220726DFF840C014461027002161
:1032F0000CEB02135D5C2A2D02D101EB0215445543
:103300005D5C4F2D02D101EB021546555D5C2E2D03
:1033100002D101EB02154755491C1029EADB521C6A
:10332000102AE4DBF0BD000026010020FEF740F982
:10333000FEF7FEFE7821A020FDF758FA0B48FDF7B6
:1033400051FB88B10948FDF731FB012807D002285D
:1033500005D0C11E042905D2FEF79EF904E0FFF74F
:1033600099FA01E0FEF722FF30BFE7E7A411002041
:103370002DE9FF4F83B00027A1F1010BCDE9007BC0
:1033800091460C463B46082202970398FFF707FF39
:103390004FF00108A4F1020ACDE9008A4346072252
:1033A0002146CDF808800398FFF7F9FEA9F1010640
:1033B0000097CDE901760023082221460398FFF704
:1033C000EEFE751ECDF80080CDE9018501230722B0
:1033D00021460398FFF7E3FECDF80080CDE901A573
:1033E000A31E0F2221460398FFF7D9FE0097CDE9CF
:1033F00001B6631E002221460398FFF7D0FE02208B
:103400006A1EE11E8DE80700034608222146039844
:10341000FFF7C5FE03201422211F8DE80700034695
:103420000C2221460398FFF7BAFECDE9005A01238A
:103430000F22214602950398FFF7B1FECDE9006BFC
:1034400000231A46214602960398FFF7A8FE069924
:103450000720CDE9000104231A462146039800F015
:103460005EF8124E00210020039B4A1D02FB04332C
:1034700006EB01152A5C402A11D0242A11D0512ACA
:1034800011D0072227181F44401C07F8152C1028BC
:10349000F0DB491C0E29E6DB07B0BDE8F08F002207
:1034A000F0E70F22EEE70822ECE7000026020020FA
:1034B000F0B50B30154D20F007010024144A0FE041
:1034C00003688B420BD38B4205D95E1A43184768B9
:1034D000C3E9006700E04368136002C004E0021D16
:1034E00010680028ECD12046002802D1286808B1D5
:1034F0000020F0BD064A07481060074A121A22F061
:103500000702C0E9002401202860D7E73403002027
:10351000300300202422002020420020FEE72DE975
:10352000FF4F89B09B4614468846179D2EE0288899
:10353000010201EB102081B26846FDF739FB1698B5
:103540000021E9464FF6FF7A4FF4004CC2B209EB76
:10355000410319F811005E78099F0AEA00200BEB7D
:103560000103064303FB087300202CFA00F73742DF
:1035700001D02718DA55401CC0B21028F5D3491CD9
:10358000C9B21029E3D31034A4B2AD1C28780028A6
:10359000CDD10DB0BDE8F08F10B5031F4FF0807492
:1035A0001C601B1F21F001011960191F024B0B60E9
:1035B000143940380A6010BD1D350008002100EBA9
:1035C0004112D26B22B1491C0529F8DB002070475B
:1035D00000EB41100121C163891E816320307047D7
:1035E00038B5F0214FF4A07000F06CF91648FFF7E1
:1035F000E5FF164C164949F69915206000954B7861
:103600000A780A3100F0D2F820684FF49B71C1604B
:10361000C82101610C48FFF7D1FF606034233C22D0
:103620000C49009500F0C2F8616814200122C860BE
:103630000861054800F0EEF82168BDE83840052231
:10364000014800F0E7B80000FC1D0020080300203E
:103650009A100020CC1100202DE9FF4F85B00F46B5
:10366000050000D50025002F00DA0027474C0799F8
:103670002068884200DA079060680899884200DA7A
:1036800008900798401B80B201900898C01B81B237
:103690000198049148434000FFF70AFF0290002878
:1036A0006DD004980090DDE90130BAB2A9B2FDF7FF
:1036B000A5FA002050E000EB8B00079AC468206850
:1036C0000090E1682069A5EB010A561A0899A7EB5A
:1036D0000008A1EB00092A4651462DA0FFF7BAFACF
:1036E000BAF1000F01DA4FF0000AB8F1000F01DA69
:1036F0004FF000086068B04200DA0646A06848450E
:1037000000DA8146414623E02069DFF890E0421864
:103710005046A2EB070C18E06368DDF800804B43CD
:103720008044E26813F8088002443EF81830D4F868
:103730001480984508D0DDF804800CFB0822A2EB29
:103740000508029A22F81830401CB042E4DB491CFC
:103750004945D9DB0BF1010083460C4882685A4584
:10376000A9DA04980090DDE901303A462946FFF7CE
:10377000F9FC029809B0BDE8F04FFFF789BD09B028
:1037800007A0BDE8F04FFFF765BA0000FC1D002060
:10379000627830203D20256420256400040100204B
:1037A000C9EAC7EBCAA7B0DC0A00000010B5029C4A
:1037B000446180E80E0010BD2DE9F0410446174633
:1037C000D4E90365C4E9031280698846002815DB43
:1037D0000BA0FFF73FFAA0682946431960688219D9
:1037E0003046FFF739FFA0686168C31901EB080292
:1037F00040463946BDE8F041FFF72EBFBDE8F081F5
:10380000D4ADC0B4CEBBD6C3D6D8D0C2BBE6D6C624
:103810000A00000030B484688B69651C954200DAA8
:103820002A464FF0FF34A24200DA22468A619342D0
:103830001DDD002A06DA0BE000EB8304A568E560D5
:10384000AB615B1E9342F7DC00EB8200C1602CE0B1
:1038500082689A4206DC08E000EB83021469D460B7
:10386000A3615B1C82689A42F6DC521E1CE026DAD9
:10387000002B06DA08E000EB83042569E560AB6104
:103880005B1C9342F7DBDFE7836806E000EB830510
:10389000EC682C615D1C5B1EA5619342F6DA00EBBF
:1038A0008202D1608268521C82600C698868231889
:1038B000C86849684218214630BCFFF7CDBE30BC0D
:1038C00070470000074AC2E900014FF0FF309060E6
:1038D0000020014602EB4013401CD9630528F9DBA8
:1038E00070470000FC1D002072B60020094989685D
:1038F00001EBC002D2692AB1401C0528F8DB62B690
:103900000020704701EBC000012140F81C1F62B687
:10391000704700001003002010B50B4C094900202F
:103920000346A16001EBC002401CD3610528F9DB0E
:10393000FFF7DAFF02210160A16801220A60C1E9F4
:10394000013010BDBC1E00201003002072B6022101
:103950000160054989680A6801EB82029060086885
:10396000401C086062B6704710030020F0B50024C8
:1039700072B60168022936D11B4DAA68566802EB5F
:1039800086018968814200D101240021136805E085
:1039900002EB8107BF68874202D0491C8B42F7DCEB
:1039A0005B1E13608E4207DD761E566004E002EB5C
:1039B0008103491CDE689E6013688B42F7DC01219D
:1039C00001607CB1A868D0E900128A4201DB0021C5
:1039D000416062B605494FF080500860BFF34F8FD9
:1039E000BFF36F8F62B6F0BD1003002004ED00E05E
:1039F000084B98680268022A0BDB4168491C416049
:103A0000914201D10021416000EB81008068406853
:103A100018607047100300200A49002000EB800264
:103A200001EB8202526922B1401C0528F6DB00201E
:103A3000704700EB800001EB8000012242610C30F6
:103A400070470000B02100200C4B10B51A680A44E2
:103A50000221C0E9012172B699684C68A24204D8DB
:103A6000986001604068586006E00C4609684B6841
:103A70009A42FAD82060016062B610BDB0210020E1
:103A800003490248086000F007B8000080210020C8
:103A900010030020FFF7ACBF064810B5016841F4E1
:103AA0007F010160016841F07F410160FCF782FB0A
:103AB000002010BD20ED00E0F8B54FF0000CDDE96E
:103AC0000664FCB1F6B107466FF0030000EB82001C
:103AD00030446D4620F007000022666004EB020EC1
:103AE0008E5C8EF808608E5C16B1521C102AF5D3DD
:103AF00084F817C01A463946FFF74EFD20601DB105
:103B00002C6001E0CDF800C00098F8BD0000000076
:103B1000000000000000000000000000000000188D
:103B200018181818180800081800000000000034C1
:103B30002424240000000000000000000000000019
:103B400016247F2424247E24240000000000000882
:103B50003E6848681C1612127C10100000000061BC
:103B6000D296740810162949C60000000000000013
:103B70003C646438724ACE467F00000000000018A2
:103B800018181800000000000000000000000004E9
:103B9000081810303030301010180C0400000020CD
:103BA0001008080C0404040C081810200000000879
:103BB0000A341C6A08000000000000000000000039
:103BC00000001818187F18181800000000000000E6
:103BD000000000000000001818083000000000007D
:103BE00000000000003C0000000000000000000099
:103BF0000000000000000018180000000000000293
:103C000006040C08081010202040000000000000EE
:103C10003C6642475B7342663C00000000000000C7
:103C200018784808080808087E0000000000000016
:103C30003C460606040810207E000000000000003C
:103C40007C0606043C0202067C0000000000000026
:103C50000C1C14246444FF04040000000000000055
:103C60007E6060607E0202067C00000000000000B2
:103C70001E306048764242623C00000000000000B6
:103C80007E0206040C08181030000000000000003E
:103C90003C6242361C6642423C00000000000000CC
:103CA0003C664242661A02047800000000000000F0
:103CB00000001818000000181800000000000000A4
:103CC000000018180000001818083000000000005C
:103CD000000004183060100C060000000000000016
:103CE000000000007E007E000000000000000000D8
:103CF0000000301804060C10200000000000003006
:103D00001C06060618100010100000000000001C21
:103D1000224141DDB5A5A5AF94C0403C00000000A4
:103D2000181C342426627E43C100000000000000FD
:103D30007C4642467C4242427C000000000000007B
:103D40001E204040404040603E0000000000000057
:103D50007C46424343434246780000000000000096
:103D60007E6060607E6060607E0000000000000099
:103D70007E6060607E6060606000000000000000A7
:103D80001E604040CE4242623E0000000000000043
:103D9000424242427E424242420000000000000095
:103DA0007E181818181818187E000000000000006F
:103DB0007C040404040404447800000000000000B3
:103DC0004244485070584C4442000000000000003B
:103DD00020202020202020203E00000000000000A5
:103DE0006266675F5B5BC1C1C1000000000000004C
:103DF000626272525A4A4E464600000000000000BD
:103E00003C6243C3C3C343623C00000000000000A7
:103E10007C464242467840404000000000000000DE
:103E20003C6243C3C3C343623C180F000000000060
:103E30007C6662667C6C64666200000000000000C4
:103E40003E6040601C0602027C0000000000000092
:103E50007F18181818181818180000000000000023
:103E600042424242424242623C00000000000000E6
:103E7000C14342622624341C1800000000000000E8
:103E8000C1C141495B5B766666000000000000002E
:103E900043663418181C2466C300000000000000AC
:103EA000C14266341C1818181800000000000000F9
:103EB0007E02040C181020607E0000000000001C30
:103EC00010101010101010101010101C00000040E6
:103ED0002020101008080C04060200000000003C1E
:103EE0000C0C0C0C0C0C0C0C0C0C0C3C0000000012
:103EF000181C246200000000000000000000000008
:103F00000000000000000000000000FF0000002092
:103F10001000000000000000000000000000000091
:103F200000003C06023E42467A00000000000040CD
:103F300040405C62424242427C00000000000000BF
:103F400000001E20604060203E00000000000002D3
:103F500002023E62424242663A0000000000000057
:103F600000003C62427E40603E0000000000000F06
:103F70001810107E1010101010000000000000003B
:103F800000003F66426658403E43423C000000400D
:103F900040405C6242424242420000000000001881
:103FA00018007808080808087E00000000000004D7
:103FB0000C007C040404040404040C780000006079
:103FC0006060626C787068646200000000000078D5
:103FD00008080808080808087E0000000000000023
:103FE0000000764B4B4B4B4B4B0000000000000099
:103FF00000005C62424242424200000000000000B9
:1040000000003C62424342623C00000000000000AD
:1040100000005C62424242427C404040000000009E
:1040200000003E62424242663A0202020000000084
:1040300000006E72636060606000000000000000BD
:1040400000003E20203C06027C0000000000000032
:104050001010FE10101010101E00000000000000D4
:1040600000004242424242663A0000000000000066
:1040700000004342662434181800000000000000CD
:104080000000C1C15B5A5E666600000000000000CF
:10409000000062261C181C266200000000000000C0
:1040A000000043426624341C181830E00000000071
:1040B00000007E060C1810207E0000000000000E9C
:1040C00018101010307010101010180E0000080892
:1040D0000808080808080808080808080000003050
:1040E000180808080C0E080808081830000000001E
:1040F00000000000714B0600000000001C41000899
:1041000000000020380300005A050008A042000803
:1041100038030020E8460000AC2C000845020406E5
:10412000082D010203040485060708095AFF01103F
:10413000C3F6CFD3BBD10896BDD42D8C43A35999D8
:104140003DD97A063BA578D1C065C5B03D6EDBF799
:104150003AF3624DC1CCEC73BBA0C186BD39B77ECA
:10416000433752363B7EFE7B3DF18739C1F3C9AA06
:104170003DD40CA93BC4667AC12ECBB73DEC8497E5
:10418000B9CEE5A4C1CA17B4BAE3FE833D996E80E7
:10419000C18010493ADACA8BBD4BE47A438F39AFFC
:1041A000BDEA784CB9B35FA743438EADBDDE214570
:1041B00038E294A14326370ABB85ED87BD2F7E8266
:1041C000439738F2BAE82E893D07EA4CC108CAADD8
:1041D000BDA30653BA9CB2A643E50AAFBD5DA36575
:1041E000BAF702A743C32A5EBB8A8E843DE5C1C6E7
:1041F000C00C3B130808621022A0120612F04B40BC
:1042000001E222E4322017F8E007E0FF1F1009174F
:10421000F8FF07FFFF38C617802004208410B80A73
:1042200010803004308499992A018D2E2E2A4F0156
:10423000190FA910290F9910390F8910490F7910FA
:10424000590F091710B9302A2A0689505987697001
:10425000797849909939292969595911790F9944DF
:104260009911B910193DA9EF2901AC404F51010A2C
:104270001324102B40400C29065920290B391569AD
:10428000301A4001B940490F091620D940F9600998
:104290001A90BA24012959B901E11AAA0101200092
:0400000508000131BD
:00000001FF
